{
	"PixelParkSale.sol": {
		"PixelParkSale": {
			"abi": [
				{
					"inputs": [],
					"name": "Error_AuctionNotEnded",
					"type": "error"
				},
				{
					"anonymous": false,
					"inputs": [
						{
							"indexed": true,
							"internalType": "address",
							"name": "BidderAddress",
							"type": "address"
						},
						{
							"indexed": false,
							"internalType": "uint256",
							"name": "BidPrice",
							"type": "uint256"
						}
					],
					"name": "Bid",
					"type": "event"
				},
				{
					"anonymous": false,
					"inputs": [
						{
							"indexed": false,
							"internalType": "uint256",
							"name": "StartTimestamp",
							"type": "uint256"
						},
						{
							"indexed": false,
							"internalType": "uint256",
							"name": "EndTimestamp",
							"type": "uint256"
						}
					],
					"name": "LaunchAuction",
					"type": "event"
				},
				{
					"anonymous": false,
					"inputs": [],
					"name": "ListedForSale",
					"type": "event"
				},
				{
					"inputs": [],
					"name": "AUCTION_DURATION",
					"outputs": [
						{
							"internalType": "uint256",
							"name": "",
							"type": "uint256"
						}
					],
					"stateMutability": "view",
					"type": "function"
				},
				{
					"inputs": [],
					"name": "MIN_BID",
					"outputs": [
						{
							"internalType": "uint256",
							"name": "",
							"type": "uint256"
						}
					],
					"stateMutability": "view",
					"type": "function"
				},
				{
					"inputs": [],
					"name": "MIN_PRICE",
					"outputs": [
						{
							"internalType": "uint256",
							"name": "",
							"type": "uint256"
						}
					],
					"stateMutability": "view",
					"type": "function"
				},
				{
					"inputs": [],
					"name": "auctionState",
					"outputs": [
						{
							"internalType": "enum PixelParkSale.Auction_State",
							"name": "",
							"type": "uint8"
						}
					],
					"stateMutability": "view",
					"type": "function"
				},
				{
					"inputs": [],
					"name": "auctioneer",
					"outputs": [
						{
							"internalType": "address",
							"name": "",
							"type": "address"
						}
					],
					"stateMutability": "view",
					"type": "function"
				},
				{
					"inputs": [],
					"name": "bidPrice",
					"outputs": [
						{
							"internalType": "uint256",
							"name": "",
							"type": "uint256"
						}
					],
					"stateMutability": "view",
					"type": "function"
				},
				{
					"inputs": [],
					"name": "bidder",
					"outputs": [
						{
							"internalType": "address",
							"name": "",
							"type": "address"
						}
					],
					"stateMutability": "view",
					"type": "function"
				},
				{
					"inputs": [
						{
							"internalType": "uint256",
							"name": "listingId",
							"type": "uint256"
						}
					],
					"name": "buyAsset",
					"outputs": [],
					"stateMutability": "payable",
					"type": "function"
				},
				{
					"inputs": [],
					"name": "cancelAuction",
					"outputs": [],
					"stateMutability": "nonpayable",
					"type": "function"
				},
				{
					"inputs": [],
					"name": "endAuction",
					"outputs": [
						{
							"internalType": "uint256",
							"name": "",
							"type": "uint256"
						}
					],
					"stateMutability": "view",
					"type": "function"
				},
				{
					"inputs": [
						{
							"internalType": "uint256",
							"name": "listingId",
							"type": "uint256"
						}
					],
					"name": "executeAuction",
					"outputs": [],
					"stateMutability": "payable",
					"type": "function"
				},
				{
					"inputs": [],
					"name": "finalizeAuction",
					"outputs": [],
					"stateMutability": "payable",
					"type": "function"
				},
				{
					"inputs": [
						{
							"internalType": "address",
							"name": "tokenAddress",
							"type": "address"
						},
						{
							"internalType": "uint256",
							"name": "tokenId",
							"type": "uint256"
						},
						{
							"internalType": "uint8",
							"name": "saleType",
							"type": "uint8"
						},
						{
							"internalType": "uint256",
							"name": "_price",
							"type": "uint256"
						},
						{
							"internalType": "uint256",
							"name": "_fee",
							"type": "uint256"
						},
						{
							"internalType": "uint256",
							"name": "_duration",
							"type": "uint256"
						}
					],
					"name": "listForSale",
					"outputs": [
						{
							"internalType": "uint256",
							"name": "",
							"type": "uint256"
						}
					],
					"stateMutability": "nonpayable",
					"type": "function"
				},
				{
					"inputs": [],
					"name": "listingCounter",
					"outputs": [
						{
							"internalType": "uint256",
							"name": "",
							"type": "uint256"
						}
					],
					"stateMutability": "view",
					"type": "function"
				},
				{
					"inputs": [
						{
							"internalType": "uint256",
							"name": "",
							"type": "uint256"
						}
					],
					"name": "listings",
					"outputs": [
						{
							"internalType": "address",
							"name": "tokenAddress",
							"type": "address"
						},
						{
							"internalType": "uint256",
							"name": "tokenId",
							"type": "uint256"
						},
						{
							"internalType": "uint8",
							"name": "saleType",
							"type": "uint8"
						},
						{
							"internalType": "uint256",
							"name": "price",
							"type": "uint256"
						},
						{
							"internalType": "uint256",
							"name": "fee",
							"type": "uint256"
						},
						{
							"internalType": "uint256",
							"name": "expirationTime",
							"type": "uint256"
						},
						{
							"internalType": "address",
							"name": "owner",
							"type": "address"
						}
					],
					"stateMutability": "view",
					"type": "function"
				},
				{
					"inputs": [
						{
							"internalType": "uint256",
							"name": "listingId",
							"type": "uint256"
						},
						{
							"internalType": "uint256",
							"name": "_bidPrice",
							"type": "uint256"
						}
					],
					"name": "placeBid",
					"outputs": [],
					"stateMutability": "payable",
					"type": "function"
				},
				{
					"inputs": [],
					"name": "startAuction",
					"outputs": [
						{
							"internalType": "uint256",
							"name": "",
							"type": "uint256"
						}
					],
					"stateMutability": "view",
					"type": "function"
				},
				{
					"stateMutability": "payable",
					"type": "receive"
				}
			],
			"devdoc": {
				"kind": "dev",
				"methods": {},
				"version": 1
			},
			"evm": {
				"assembly": "    /* \"PixelParkSale.sol\":122:5836  contract PixelParkSale {\r... */\n  mstore(0x40, 0x80)\n    /* \"PixelParkSale.sol\":373:392  Auction_State.Ended */\n  0x02\n    /* \"PixelParkSale.sol\":337:392  Auction_State public auctionState = Auction_State.Ended */\n  0x00\n  dup1\n  0x0100\n  exp\n  dup2\n  sload\n  dup2\n  0xff\n  mul\n  not\n  and\n  swap1\n  dup4\n  0x03\n  dup2\n  gt\n  iszero\n  tag_1\n  jumpi\n  tag_2\n  tag_3\n  jump\t// in\ntag_2:\ntag_1:\n  mul\n  or\n  swap1\n  sstore\n  pop\n    /* \"PixelParkSale.sol\":901:904  1e4 */\n  0x2710\n    /* \"PixelParkSale.sol\":878:904  uint256 PixelParkFee = 1e4 */\n  0x01\n  sstore\n    /* \"PixelParkSale.sol\":931:934  1e6 */\n  0x0f4240\n    /* \"PixelParkSale.sol\":911:934  uint256 FEE_SCALE = 1e6 */\n  0x02\n  sstore\n    /* \"PixelParkSale.sol\":1021:1022  0 */\n  0x00\n    /* \"PixelParkSale.sol\":989:1022  uint256 public listingCounter = 0 */\n  0x04\n  sstore\n    /* \"PixelParkSale.sol\":1584:1589  false */\n  0x00\n    /* \"PixelParkSale.sol\":1560:1589  bool private isBidded = false */\n  0x09\n  exp(0x0100, 0x14)\n  dup2\n  sload\n  dup2\n  0xff\n  mul\n  not\n  and\n  swap1\n  dup4\n  iszero\n  iszero\n  mul\n  or\n  swap1\n  sstore\n  pop\n    /* \"PixelParkSale.sol\":122:5836  contract PixelParkSale {\r... */\n  callvalue\n  dup1\n  iszero\n  tag_4\n  jumpi\n  0x00\n  dup1\n  revert\ntag_4:\n  pop\n  jump(tag_5)\n    /* \"#utility.yul\":7:187   */\ntag_3:\n    /* \"#utility.yul\":55:132   */\n  0x4e487b7100000000000000000000000000000000000000000000000000000000\n    /* \"#utility.yul\":52:53   */\n  0x00\n    /* \"#utility.yul\":45:133   */\n  mstore\n    /* \"#utility.yul\":152:156   */\n  0x21\n    /* \"#utility.yul\":149:150   */\n  0x04\n    /* \"#utility.yul\":142:157   */\n  mstore\n    /* \"#utility.yul\":176:180   */\n  0x24\n    /* \"#utility.yul\":173:174   */\n  0x00\n    /* \"#utility.yul\":166:181   */\n  revert\n    /* \"PixelParkSale.sol\":122:5836  contract PixelParkSale {\r... */\ntag_5:\n  dataSize(sub_0)\n  dup1\n  dataOffset(sub_0)\n  0x00\n  codecopy\n  0x00\n  return\nstop\n\nsub_0: assembly {\n        /* \"PixelParkSale.sol\":122:5836  contract PixelParkSale {\r... */\n      mstore(0x40, 0x80)\n      jumpi(tag_1, lt(calldatasize, 0x04))\n      shr(0xe0, calldataload(0x00))\n      dup1\n      0x8fa8b790\n      gt\n      tag_20\n      jumpi\n      dup1\n      0xde74e57b\n      gt\n      tag_21\n      jumpi\n      dup1\n      0xde74e57b\n      eq\n      tag_15\n      jumpi\n      dup1\n      0xeb2aa7c6\n      eq\n      tag_16\n      jumpi\n      dup1\n      0xf496d882\n      eq\n      tag_17\n      jumpi\n      dup1\n      0xf77282ab\n      eq\n      tag_18\n      jumpi\n      dup1\n      0xfe67a54b\n      eq\n      tag_19\n      jumpi\n      jump(tag_2)\n    tag_21:\n      dup1\n      0x8fa8b790\n      eq\n      tag_11\n      jumpi\n      dup1\n      0xa271e525\n      eq\n      tag_12\n      jumpi\n      dup1\n      0xad9f20a6\n      eq\n      tag_13\n      jumpi\n      dup1\n      0xce69cd20\n      eq\n      tag_14\n      jumpi\n      jump(tag_2)\n    tag_20:\n      dup1\n      0x6b64c769\n      gt\n      tag_22\n      jumpi\n      dup1\n      0x6b64c769\n      eq\n      tag_7\n      jumpi\n      dup1\n      0x6c2c9c7d\n      eq\n      tag_8\n      jumpi\n      dup1\n      0x7fb45099\n      eq\n      tag_9\n      jumpi\n      dup1\n      0x7fd855ee\n      eq\n      tag_10\n      jumpi\n      jump(tag_2)\n    tag_22:\n      dup1\n      0x110d35b8\n      eq\n      tag_3\n      jumpi\n      dup1\n      0x19afe473\n      eq\n      tag_4\n      jumpi\n      dup1\n      0x57c90de5\n      eq\n      tag_5\n      jumpi\n      dup1\n      0x5ec2c7bf\n      eq\n      tag_6\n      jumpi\n      jump(tag_2)\n    tag_1:\n      jumpi(tag_2, calldatasize)\n      stop\n    tag_2:\n      0x00\n      dup1\n      revert\n        /* \"PixelParkSale.sol\":2932:3465  function buyAsset(uint256 listingId) public payable {\r... */\n    tag_3:\n      tag_25\n      0x04\n      dup1\n      calldatasize\n      sub\n      dup2\n      add\n      swap1\n      tag_26\n      swap2\n      swap1\n      tag_27\n      jump\t// in\n    tag_26:\n      tag_28\n      jump\t// in\n    tag_25:\n      stop\n        /* \"PixelParkSale.sol\":1399:1422  uint256 public bidPrice */\n    tag_4:\n      callvalue\n      dup1\n      iszero\n      tag_29\n      jumpi\n      0x00\n      dup1\n      revert\n    tag_29:\n      pop\n      tag_30\n      tag_31\n      jump\t// in\n    tag_30:\n      mload(0x40)\n      tag_32\n      swap2\n      swap1\n      tag_33\n      jump\t// in\n    tag_32:\n      mload(0x40)\n      dup1\n      swap2\n      sub\n      swap1\n      return\n        /* \"PixelParkSale.sol\":4611:4920  function placeBid(uint256 listingId, uint256 _bidPrice) notOwner public payable{\r... */\n    tag_5:\n      tag_34\n      0x04\n      dup1\n      calldatasize\n      sub\n      dup2\n      add\n      swap1\n      tag_35\n      swap2\n      swap1\n      tag_36\n      jump\t// in\n    tag_35:\n      tag_37\n      jump\t// in\n    tag_34:\n      stop\n        /* \"PixelParkSale.sol\":1113:1138  address public auctioneer */\n    tag_6:\n      callvalue\n      dup1\n      iszero\n      tag_38\n      jumpi\n      0x00\n      dup1\n      revert\n    tag_38:\n      pop\n      tag_39\n      tag_40\n      jump\t// in\n    tag_39:\n      mload(0x40)\n      tag_41\n      swap2\n      swap1\n      tag_42\n      jump\t// in\n    tag_41:\n      mload(0x40)\n      dup1\n      swap2\n      sub\n      swap1\n      return\n        /* \"PixelParkSale.sol\":1198:1225  uint256 public startAuction */\n    tag_7:\n      callvalue\n      dup1\n      iszero\n      tag_43\n      jumpi\n      0x00\n      dup1\n      revert\n    tag_43:\n      pop\n      tag_44\n      tag_45\n      jump\t// in\n    tag_44:\n      mload(0x40)\n      tag_46\n      swap2\n      swap1\n      tag_33\n      jump\t// in\n    tag_46:\n      mload(0x40)\n      dup1\n      swap2\n      sub\n      swap1\n      return\n        /* \"PixelParkSale.sol\":989:1022  uint256 public listingCounter = 0 */\n    tag_8:\n      callvalue\n      dup1\n      iszero\n      tag_47\n      jumpi\n      0x00\n      dup1\n      revert\n    tag_47:\n      pop\n      tag_48\n      tag_49\n      jump\t// in\n    tag_48:\n      mload(0x40)\n      tag_50\n      swap2\n      swap1\n      tag_33\n      jump\t// in\n    tag_50:\n      mload(0x40)\n      dup1\n      swap2\n      sub\n      swap1\n      return\n        /* \"PixelParkSale.sol\":337:392  Auction_State public auctionState = Auction_State.Ended */\n    tag_9:\n      callvalue\n      dup1\n      iszero\n      tag_51\n      jumpi\n      0x00\n      dup1\n      revert\n    tag_51:\n      pop\n      tag_52\n      tag_53\n      jump\t// in\n    tag_52:\n      mload(0x40)\n      tag_54\n      swap2\n      swap1\n      tag_55\n      jump\t// in\n    tag_54:\n      mload(0x40)\n      dup1\n      swap2\n      sub\n      swap1\n      return\n        /* \"PixelParkSale.sol\":3630:4196  function executeAuction(uint256 listingId) public payable onlyOwner {\r... */\n    tag_10:\n      tag_56\n      0x04\n      dup1\n      calldatasize\n      sub\n      dup2\n      add\n      swap1\n      tag_57\n      swap2\n      swap1\n      tag_27\n      jump\t// in\n    tag_57:\n      tag_58\n      jump\t// in\n    tag_56:\n      stop\n        /* \"PixelParkSale.sol\":4204:4303  function cancelAuction() public onlyOwner {\r... */\n    tag_11:\n      callvalue\n      dup1\n      iszero\n      tag_59\n      jumpi\n      0x00\n      dup1\n      revert\n    tag_59:\n      pop\n      tag_60\n      tag_61\n      jump\t// in\n    tag_60:\n      stop\n        /* \"PixelParkSale.sol\":1637:1668  uint256 public AUCTION_DURATION */\n    tag_12:\n      callvalue\n      dup1\n      iszero\n      tag_62\n      jumpi\n      0x00\n      dup1\n      revert\n    tag_62:\n      pop\n      tag_63\n      tag_64\n      jump\t// in\n    tag_63:\n      mload(0x40)\n      tag_65\n      swap2\n      swap1\n      tag_33\n      jump\t// in\n    tag_65:\n      mload(0x40)\n      dup1\n      swap2\n      sub\n      swap1\n      return\n        /* \"PixelParkSale.sol\":1711:1735  uint256 public MIN_PRICE */\n    tag_13:\n      callvalue\n      dup1\n      iszero\n      tag_66\n      jumpi\n      0x00\n      dup1\n      revert\n    tag_66:\n      pop\n      tag_67\n      tag_68\n      jump\t// in\n    tag_67:\n      mload(0x40)\n      tag_69\n      swap2\n      swap1\n      tag_33\n      jump\t// in\n    tag_69:\n      mload(0x40)\n      dup1\n      swap2\n      sub\n      swap1\n      return\n        /* \"PixelParkSale.sol\":1785:1807  uint256 public MIN_BID */\n    tag_14:\n      callvalue\n      dup1\n      iszero\n      tag_70\n      jumpi\n      0x00\n      dup1\n      revert\n    tag_70:\n      pop\n      tag_71\n      tag_72\n      jump\t// in\n    tag_71:\n      mload(0x40)\n      tag_73\n      swap2\n      swap1\n      tag_33\n      jump\t// in\n    tag_73:\n      mload(0x40)\n      dup1\n      swap2\n      sub\n      swap1\n      return\n        /* \"PixelParkSale.sol\":941:982  mapping(uint256 => Asset) public listings */\n    tag_15:\n      callvalue\n      dup1\n      iszero\n      tag_74\n      jumpi\n      0x00\n      dup1\n      revert\n    tag_74:\n      pop\n      tag_75\n      0x04\n      dup1\n      calldatasize\n      sub\n      dup2\n      add\n      swap1\n      tag_76\n      swap2\n      swap1\n      tag_27\n      jump\t// in\n    tag_76:\n      tag_77\n      jump\t// in\n    tag_75:\n      mload(0x40)\n      tag_78\n      swap8\n      swap7\n      swap6\n      swap5\n      swap4\n      swap3\n      swap2\n      swap1\n      tag_79\n      jump\t// in\n    tag_78:\n      mload(0x40)\n      dup1\n      swap2\n      sub\n      swap1\n      return\n        /* \"PixelParkSale.sol\":2388:2924  function listForSale(\r... */\n    tag_16:\n      callvalue\n      dup1\n      iszero\n      tag_80\n      jumpi\n      0x00\n      dup1\n      revert\n    tag_80:\n      pop\n      tag_81\n      0x04\n      dup1\n      calldatasize\n      sub\n      dup2\n      add\n      swap1\n      tag_82\n      swap2\n      swap1\n      tag_83\n      jump\t// in\n    tag_82:\n      tag_84\n      jump\t// in\n    tag_81:\n      mload(0x40)\n      tag_85\n      swap2\n      swap1\n      tag_33\n      jump\t// in\n    tag_85:\n      mload(0x40)\n      dup1\n      swap2\n      sub\n      swap1\n      return\n        /* \"PixelParkSale.sol\":1484:1505  address public bidder */\n    tag_17:\n      callvalue\n      dup1\n      iszero\n      tag_86\n      jumpi\n      0x00\n      dup1\n      revert\n    tag_86:\n      pop\n      tag_87\n      tag_88\n      jump\t// in\n    tag_87:\n      mload(0x40)\n      tag_89\n      swap2\n      swap1\n      tag_42\n      jump\t// in\n    tag_89:\n      mload(0x40)\n      dup1\n      swap2\n      sub\n      swap1\n      return\n        /* \"PixelParkSale.sol\":4311:4450  function finalizeAuction() public payable{\r... */\n    tag_18:\n      tag_90\n      tag_91\n      jump\t// in\n    tag_90:\n      stop\n        /* \"PixelParkSale.sol\":1307:1332  uint256 public endAuction */\n    tag_19:\n      callvalue\n      dup1\n      iszero\n      tag_92\n      jumpi\n      0x00\n      dup1\n      revert\n    tag_92:\n      pop\n      tag_93\n      tag_94\n      jump\t// in\n    tag_93:\n      mload(0x40)\n      tag_95\n      swap2\n      swap1\n      tag_33\n      jump\t// in\n    tag_95:\n      mload(0x40)\n      dup1\n      swap2\n      sub\n      swap1\n      return\n        /* \"PixelParkSale.sol\":2932:3465  function buyAsset(uint256 listingId) public payable {\r... */\n    tag_28:\n        /* \"PixelParkSale.sol\":3031:3032  1 */\n      0x01\n        /* \"PixelParkSale.sol\":2999:3007  listings */\n      0x03\n        /* \"PixelParkSale.sol\":2999:3018  listings[listingId] */\n      0x00\n        /* \"PixelParkSale.sol\":3008:3017  listingId */\n      dup4\n        /* \"PixelParkSale.sol\":2999:3018  listings[listingId] */\n      dup2\n      mstore\n      0x20\n      add\n      swap1\n      dup2\n      mstore\n      0x20\n      add\n      0x00\n      keccak256\n        /* \"PixelParkSale.sol\":2999:3027  listings[listingId].saleType */\n      0x02\n      add\n      0x00\n      swap1\n      sload\n      swap1\n      0x0100\n      exp\n      swap1\n      div\n      0xff\n      and\n        /* \"PixelParkSale.sol\":2999:3032  listings[listingId].saleType == 1 */\n      0xff\n      and\n      eq\n        /* \"PixelParkSale.sol\":2995:3194  if (listings[listingId].saleType == 1) {\r... */\n      iszero\n      tag_97\n      jumpi\n        /* \"PixelParkSale.sol\":3113:3128  block.timestamp */\n      timestamp\n        /* \"PixelParkSale.sol\":3075:3083  listings */\n      0x03\n        /* \"PixelParkSale.sol\":3075:3094  listings[listingId] */\n      0x00\n        /* \"PixelParkSale.sol\":3084:3093  listingId */\n      dup4\n        /* \"PixelParkSale.sol\":3075:3094  listings[listingId] */\n      dup2\n      mstore\n      0x20\n      add\n      swap1\n      dup2\n      mstore\n      0x20\n      add\n      0x00\n      keccak256\n        /* \"PixelParkSale.sol\":3075:3109  listings[listingId].expirationTime */\n      0x05\n      add\n      sload\n        /* \"PixelParkSale.sol\":3075:3128  listings[listingId].expirationTime >= block.timestamp */\n      lt\n      iszero\n        /* \"PixelParkSale.sol\":3049:3182  require(\r... */\n      tag_98\n      jumpi\n      mload(0x40)\n      0x08c379a000000000000000000000000000000000000000000000000000000000\n      dup2\n      mstore\n      0x04\n      add\n      tag_99\n      swap1\n      tag_100\n      jump\t// in\n    tag_99:\n      mload(0x40)\n      dup1\n      swap2\n      sub\n      swap1\n      revert\n    tag_98:\n        /* \"PixelParkSale.sol\":2995:3194  if (listings[listingId].saleType == 1) {\r... */\n    tag_97:\n        /* \"PixelParkSale.sol\":3212:3220  listings */\n      0x03\n        /* \"PixelParkSale.sol\":3212:3231  listings[listingId] */\n      0x00\n        /* \"PixelParkSale.sol\":3221:3230  listingId */\n      dup3\n        /* \"PixelParkSale.sol\":3212:3231  listings[listingId] */\n      dup2\n      mstore\n      0x20\n      add\n      swap1\n      dup2\n      mstore\n      0x20\n      add\n      0x00\n      keccak256\n        /* \"PixelParkSale.sol\":3212:3237  listings[listingId].owner */\n      0x06\n      add\n      0x00\n      swap1\n      sload\n      swap1\n      0x0100\n      exp\n      swap1\n      div\n      0xffffffffffffffffffffffffffffffffffffffff\n      and\n        /* \"PixelParkSale.sol\":3204:3247  payable(listings[listingId].owner).transfer */\n      0xffffffffffffffffffffffffffffffffffffffff\n      and\n        /* \"PixelParkSale.sol\":3204:3274  payable(listings[listingId].owner).transfer(listings[listingId].price) */\n      0x08fc\n        /* \"PixelParkSale.sol\":3248:3256  listings */\n      0x03\n        /* \"PixelParkSale.sol\":3248:3267  listings[listingId] */\n      0x00\n        /* \"PixelParkSale.sol\":3257:3266  listingId */\n      dup5\n        /* \"PixelParkSale.sol\":3248:3267  listings[listingId] */\n      dup2\n      mstore\n      0x20\n      add\n      swap1\n      dup2\n      mstore\n      0x20\n      add\n      0x00\n      keccak256\n        /* \"PixelParkSale.sol\":3248:3273  listings[listingId].price */\n      0x03\n      add\n      sload\n        /* \"PixelParkSale.sol\":3204:3274  payable(listings[listingId].owner).transfer(listings[listingId].price) */\n      swap1\n      dup2\n      iszero\n      mul\n      swap1\n      mload(0x40)\n      0x00\n      mload(0x40)\n      dup1\n      dup4\n      sub\n      dup2\n      dup6\n      dup9\n      dup9\n      call\n      swap4\n      pop\n      pop\n      pop\n      pop\n      iszero\n      dup1\n      iszero\n      tag_102\n      jumpi\n      returndatasize\n      0x00\n      dup1\n      returndatacopy\n      revert(0x00, returndatasize)\n    tag_102:\n      pop\n        /* \"PixelParkSale.sol\":3293:3301  listings */\n      0x03\n        /* \"PixelParkSale.sol\":3293:3312  listings[listingId] */\n      0x00\n        /* \"PixelParkSale.sol\":3302:3311  listingId */\n      dup3\n        /* \"PixelParkSale.sol\":3293:3312  listings[listingId] */\n      dup2\n      mstore\n      0x20\n      add\n      swap1\n      dup2\n      mstore\n      0x20\n      add\n      0x00\n      keccak256\n        /* \"PixelParkSale.sol\":3293:3325  listings[listingId].tokenAddress */\n      0x00\n      add\n      0x00\n      swap1\n      sload\n      swap1\n      0x0100\n      exp\n      swap1\n      div\n      0xffffffffffffffffffffffffffffffffffffffff\n      and\n        /* \"PixelParkSale.sol\":3285:3339  IERC721(listings[listingId].tokenAddress).transferFrom */\n      0xffffffffffffffffffffffffffffffffffffffff\n      and\n      0x23b872dd\n        /* \"PixelParkSale.sol\":3354:3362  listings */\n      0x03\n        /* \"PixelParkSale.sol\":3354:3373  listings[listingId] */\n      0x00\n        /* \"PixelParkSale.sol\":3363:3372  listingId */\n      dup5\n        /* \"PixelParkSale.sol\":3354:3373  listings[listingId] */\n      dup2\n      mstore\n      0x20\n      add\n      swap1\n      dup2\n      mstore\n      0x20\n      add\n      0x00\n      keccak256\n        /* \"PixelParkSale.sol\":3354:3379  listings[listingId].owner */\n      0x06\n      add\n      0x00\n      swap1\n      sload\n      swap1\n      0x0100\n      exp\n      swap1\n      div\n      0xffffffffffffffffffffffffffffffffffffffff\n      and\n        /* \"PixelParkSale.sol\":3394:3404  msg.sender */\n      caller\n        /* \"PixelParkSale.sol\":3419:3427  listings */\n      0x03\n        /* \"PixelParkSale.sol\":3419:3438  listings[listingId] */\n      0x00\n        /* \"PixelParkSale.sol\":3428:3437  listingId */\n      dup7\n        /* \"PixelParkSale.sol\":3419:3438  listings[listingId] */\n      dup2\n      mstore\n      0x20\n      add\n      swap1\n      dup2\n      mstore\n      0x20\n      add\n      0x00\n      keccak256\n        /* \"PixelParkSale.sol\":3419:3446  listings[listingId].tokenId */\n      0x01\n      add\n      sload\n        /* \"PixelParkSale.sol\":3285:3457  IERC721(listings[listingId].tokenAddress).transferFrom(\r... */\n      mload(0x40)\n      dup5\n      0xffffffff\n      and\n      0xe0\n      shl\n      dup2\n      mstore\n      0x04\n      add\n      tag_103\n      swap4\n      swap3\n      swap2\n      swap1\n      tag_104\n      jump\t// in\n    tag_103:\n      0x00\n      mload(0x40)\n      dup1\n      dup4\n      sub\n      dup2\n      0x00\n      dup8\n      dup1\n      extcodesize\n      iszero\n      dup1\n      iszero\n      tag_105\n      jumpi\n      0x00\n      dup1\n      revert\n    tag_105:\n      pop\n      gas\n      call\n      iszero\n      dup1\n      iszero\n      tag_107\n      jumpi\n      returndatasize\n      0x00\n      dup1\n      returndatacopy\n      revert(0x00, returndatasize)\n    tag_107:\n      pop\n      pop\n      pop\n      pop\n        /* \"PixelParkSale.sol\":2932:3465  function buyAsset(uint256 listingId) public payable {\r... */\n      pop\n      jump\t// out\n        /* \"PixelParkSale.sol\":1399:1422  uint256 public bidPrice */\n    tag_31:\n      sload(0x08)\n      dup2\n      jump\t// out\n        /* \"PixelParkSale.sol\":4611:4920  function placeBid(uint256 listingId, uint256 _bidPrice) notOwner public payable{\r... */\n    tag_37:\n        /* \"PixelParkSale.sol\":2087:2097  auctioneer */\n      0x05\n      0x00\n      swap1\n      sload\n      swap1\n      0x0100\n      exp\n      swap1\n      div\n      0xffffffffffffffffffffffffffffffffffffffff\n      and\n        /* \"PixelParkSale.sol\":2073:2097  msg.sender != auctioneer */\n      0xffffffffffffffffffffffffffffffffffffffff\n      and\n        /* \"PixelParkSale.sol\":2073:2083  msg.sender */\n      caller\n        /* \"PixelParkSale.sol\":2073:2097  msg.sender != auctioneer */\n      0xffffffffffffffffffffffffffffffffffffffff\n      and\n      eq\n      iszero\n        /* \"PixelParkSale.sol\":2051:2176  require(\r... */\n      tag_109\n      jumpi\n      mload(0x40)\n      0x08c379a000000000000000000000000000000000000000000000000000000000\n      dup2\n      mstore\n      0x04\n      add\n      tag_110\n      swap1\n      tag_111\n      jump\t// in\n    tag_110:\n      mload(0x40)\n      dup1\n      swap2\n      sub\n      swap1\n      revert\n    tag_109:\n        /* \"PixelParkSale.sol\":4741:4742  1 */\n      0x01\n        /* \"PixelParkSale.sol\":4709:4717  listings */\n      0x03\n        /* \"PixelParkSale.sol\":4709:4728  listings[listingId] */\n      0x00\n        /* \"PixelParkSale.sol\":4718:4727  listingId */\n      dup5\n        /* \"PixelParkSale.sol\":4709:4728  listings[listingId] */\n      dup2\n      mstore\n      0x20\n      add\n      swap1\n      dup2\n      mstore\n      0x20\n      add\n      0x00\n      keccak256\n        /* \"PixelParkSale.sol\":4709:4737  listings[listingId].saleType */\n      0x02\n      add\n      0x00\n      swap1\n      sload\n      swap1\n      0x0100\n      exp\n      swap1\n      div\n      0xff\n      and\n        /* \"PixelParkSale.sol\":4709:4742  listings[listingId].saleType == 1 */\n      0xff\n      and\n      eq\n        /* \"PixelParkSale.sol\":4701:4769  require(listings[listingId].saleType == 1, \"Not an auction listing\") */\n      tag_113\n      jumpi\n      mload(0x40)\n      0x08c379a000000000000000000000000000000000000000000000000000000000\n      dup2\n      mstore\n      0x04\n      add\n      tag_114\n      swap1\n      tag_115\n      jump\t// in\n    tag_114:\n      mload(0x40)\n      dup1\n      swap2\n      sub\n      swap1\n      revert\n    tag_113:\n        /* \"PixelParkSale.sol\":4798:4806  listings */\n      0x03\n        /* \"PixelParkSale.sol\":4798:4817  listings[listingId] */\n      0x00\n        /* \"PixelParkSale.sol\":4807:4816  listingId */\n      dup4\n        /* \"PixelParkSale.sol\":4798:4817  listings[listingId] */\n      dup2\n      mstore\n      0x20\n      add\n      swap1\n      dup2\n      mstore\n      0x20\n      add\n      0x00\n      keccak256\n        /* \"PixelParkSale.sol\":4798:4823  listings[listingId].price */\n      0x03\n      add\n      sload\n        /* \"PixelParkSale.sol\":4788:4797  _bidPrice */\n      dup2\n        /* \"PixelParkSale.sol\":4788:4823  _bidPrice>listings[listingId].price */\n      gt\n        /* \"PixelParkSale.sol\":4780:4862  require(_bidPrice>listings[listingId].price, \"bid amount less than listing price\") */\n      tag_116\n      jumpi\n      mload(0x40)\n      0x08c379a000000000000000000000000000000000000000000000000000000000\n      dup2\n      mstore\n      0x04\n      add\n      tag_117\n      swap1\n      tag_118\n      jump\t// in\n    tag_117:\n      mload(0x40)\n      dup1\n      swap2\n      sub\n      swap1\n      revert\n    tag_116:\n        /* \"PixelParkSale.sol\":4901:4910  _bidPrice */\n      dup1\n        /* \"PixelParkSale.sol\":4873:4881  listings */\n      0x03\n        /* \"PixelParkSale.sol\":4873:4892  listings[listingId] */\n      0x00\n        /* \"PixelParkSale.sol\":4882:4891  listingId */\n      dup5\n        /* \"PixelParkSale.sol\":4873:4892  listings[listingId] */\n      dup2\n      mstore\n      0x20\n      add\n      swap1\n      dup2\n      mstore\n      0x20\n      add\n      0x00\n      keccak256\n        /* \"PixelParkSale.sol\":4873:4898  listings[listingId].price */\n      0x03\n      add\n        /* \"PixelParkSale.sol\":4873:4910  listings[listingId].price = _bidPrice */\n      dup2\n      swap1\n      sstore\n      pop\n        /* \"PixelParkSale.sol\":4611:4920  function placeBid(uint256 listingId, uint256 _bidPrice) notOwner public payable{\r... */\n      pop\n      pop\n      jump\t// out\n        /* \"PixelParkSale.sol\":1113:1138  address public auctioneer */\n    tag_40:\n      0x05\n      0x00\n      swap1\n      sload\n      swap1\n      0x0100\n      exp\n      swap1\n      div\n      0xffffffffffffffffffffffffffffffffffffffff\n      and\n      dup2\n      jump\t// out\n        /* \"PixelParkSale.sol\":1198:1225  uint256 public startAuction */\n    tag_45:\n      sload(0x06)\n      dup2\n      jump\t// out\n        /* \"PixelParkSale.sol\":989:1022  uint256 public listingCounter = 0 */\n    tag_49:\n      sload(0x04)\n      dup2\n      jump\t// out\n        /* \"PixelParkSale.sol\":337:392  Auction_State public auctionState = Auction_State.Ended */\n    tag_53:\n      0x00\n      dup1\n      sload\n      swap1\n      0x0100\n      exp\n      swap1\n      div\n      0xff\n      and\n      dup2\n      jump\t// out\n        /* \"PixelParkSale.sol\":3630:4196  function executeAuction(uint256 listingId) public payable onlyOwner {\r... */\n    tag_58:\n        /* \"PixelParkSale.sol\":2272:2282  auctioneer */\n      0x05\n      0x00\n      swap1\n      sload\n      swap1\n      0x0100\n      exp\n      swap1\n      div\n      0xffffffffffffffffffffffffffffffffffffffff\n      and\n        /* \"PixelParkSale.sol\":2258:2282  msg.sender == auctioneer */\n      0xffffffffffffffffffffffffffffffffffffffff\n      and\n        /* \"PixelParkSale.sol\":2258:2268  msg.sender */\n      caller\n        /* \"PixelParkSale.sol\":2258:2282  msg.sender == auctioneer */\n      0xffffffffffffffffffffffffffffffffffffffff\n      and\n      eq\n        /* \"PixelParkSale.sol\":2236:2360  require(\r... */\n      tag_120\n      jumpi\n      mload(0x40)\n      0x08c379a000000000000000000000000000000000000000000000000000000000\n      dup2\n      mstore\n      0x04\n      add\n      tag_121\n      swap1\n      tag_122\n      jump\t// in\n    tag_121:\n      mload(0x40)\n      dup1\n      swap2\n      sub\n      swap1\n      revert\n    tag_120:\n        /* \"PixelParkSale.sol\":3749:3750  1 */\n      0x01\n        /* \"PixelParkSale.sol\":3717:3725  listings */\n      0x03\n        /* \"PixelParkSale.sol\":3717:3736  listings[listingId] */\n      0x00\n        /* \"PixelParkSale.sol\":3726:3735  listingId */\n      dup4\n        /* \"PixelParkSale.sol\":3717:3736  listings[listingId] */\n      dup2\n      mstore\n      0x20\n      add\n      swap1\n      dup2\n      mstore\n      0x20\n      add\n      0x00\n      keccak256\n        /* \"PixelParkSale.sol\":3717:3745  listings[listingId].saleType */\n      0x02\n      add\n      0x00\n      swap1\n      sload\n      swap1\n      0x0100\n      exp\n      swap1\n      div\n      0xff\n      and\n        /* \"PixelParkSale.sol\":3717:3750  listings[listingId].saleType == 1 */\n      0xff\n      and\n      eq\n        /* \"PixelParkSale.sol\":3709:3777  require(listings[listingId].saleType == 1, \"Not an auction listing\") */\n      tag_124\n      jumpi\n      mload(0x40)\n      0x08c379a000000000000000000000000000000000000000000000000000000000\n      dup2\n      mstore\n      0x04\n      add\n      tag_125\n      swap1\n      tag_115\n      jump\t// in\n    tag_125:\n      mload(0x40)\n      dup1\n      swap2\n      sub\n      swap1\n      revert\n    tag_124:\n        /* \"PixelParkSale.sol\":3803:3824  Auction_State.Running */\n      0x01\n        /* \"PixelParkSale.sol\":3788:3800  auctionState */\n      0x00\n      dup1\n        /* \"PixelParkSale.sol\":3788:3824  auctionState = Auction_State.Running */\n      0x0100\n      exp\n      dup2\n      sload\n      dup2\n      0xff\n      mul\n      not\n      and\n      swap1\n      dup4\n      0x03\n      dup2\n      gt\n      iszero\n      tag_126\n      jumpi\n      tag_127\n      tag_128\n      jump\t// in\n    tag_127:\n    tag_126:\n      mul\n      or\n      swap1\n      sstore\n      pop\n        /* \"PixelParkSale.sol\":3850:3865  block.timestamp */\n      timestamp\n        /* \"PixelParkSale.sol\":3835:3847  startAuction */\n      0x06\n        /* \"PixelParkSale.sol\":3835:3865  startAuction = block.timestamp */\n      dup2\n      swap1\n      sstore\n      pop\n        /* \"PixelParkSale.sol\":3904:3920  AUCTION_DURATION */\n      sload(0x0a)\n        /* \"PixelParkSale.sol\":3889:3901  startAuction */\n      sload(0x06)\n        /* \"PixelParkSale.sol\":3889:3920  startAuction + AUCTION_DURATION */\n      tag_129\n      swap2\n      swap1\n      tag_130\n      jump\t// in\n    tag_129:\n        /* \"PixelParkSale.sol\":3876:3886  endAuction */\n      0x07\n        /* \"PixelParkSale.sol\":3876:3920  endAuction = startAuction + AUCTION_DURATION */\n      dup2\n      swap1\n      sstore\n      pop\n        /* \"PixelParkSale.sol\":3941:3949  listings */\n      0x03\n        /* \"PixelParkSale.sol\":3941:3960  listings[listingId] */\n      0x00\n        /* \"PixelParkSale.sol\":3950:3959  listingId */\n      dup3\n        /* \"PixelParkSale.sol\":3941:3960  listings[listingId] */\n      dup2\n      mstore\n      0x20\n      add\n      swap1\n      dup2\n      mstore\n      0x20\n      add\n      0x00\n      keccak256\n        /* \"PixelParkSale.sol\":3941:3966  listings[listingId].owner */\n      0x06\n      add\n      0x00\n      swap1\n      sload\n      swap1\n      0x0100\n      exp\n      swap1\n      div\n      0xffffffffffffffffffffffffffffffffffffffff\n      and\n        /* \"PixelParkSale.sol\":3933:3976  payable(listings[listingId].owner).transfer */\n      0xffffffffffffffffffffffffffffffffffffffff\n      and\n        /* \"PixelParkSale.sol\":3933:4003  payable(listings[listingId].owner).transfer(listings[listingId].price) */\n      0x08fc\n        /* \"PixelParkSale.sol\":3977:3985  listings */\n      0x03\n        /* \"PixelParkSale.sol\":3977:3996  listings[listingId] */\n      0x00\n        /* \"PixelParkSale.sol\":3986:3995  listingId */\n      dup5\n        /* \"PixelParkSale.sol\":3977:3996  listings[listingId] */\n      dup2\n      mstore\n      0x20\n      add\n      swap1\n      dup2\n      mstore\n      0x20\n      add\n      0x00\n      keccak256\n        /* \"PixelParkSale.sol\":3977:4002  listings[listingId].price */\n      0x03\n      add\n      sload\n        /* \"PixelParkSale.sol\":3933:4003  payable(listings[listingId].owner).transfer(listings[listingId].price) */\n      swap1\n      dup2\n      iszero\n      mul\n      swap1\n      mload(0x40)\n      0x00\n      mload(0x40)\n      dup1\n      dup4\n      sub\n      dup2\n      dup6\n      dup9\n      dup9\n      call\n      swap4\n      pop\n      pop\n      pop\n      pop\n      iszero\n      dup1\n      iszero\n      tag_132\n      jumpi\n      returndatasize\n      0x00\n      dup1\n      returndatacopy\n      revert(0x00, returndatasize)\n    tag_132:\n      pop\n        /* \"PixelParkSale.sol\":4024:4032  listings */\n      0x03\n        /* \"PixelParkSale.sol\":4024:4043  listings[listingId] */\n      0x00\n        /* \"PixelParkSale.sol\":4033:4042  listingId */\n      dup3\n        /* \"PixelParkSale.sol\":4024:4043  listings[listingId] */\n      dup2\n      mstore\n      0x20\n      add\n      swap1\n      dup2\n      mstore\n      0x20\n      add\n      0x00\n      keccak256\n        /* \"PixelParkSale.sol\":4024:4056  listings[listingId].tokenAddress */\n      0x00\n      add\n      0x00\n      swap1\n      sload\n      swap1\n      0x0100\n      exp\n      swap1\n      div\n      0xffffffffffffffffffffffffffffffffffffffff\n      and\n        /* \"PixelParkSale.sol\":4016:4070  IERC721(listings[listingId].tokenAddress).transferFrom */\n      0xffffffffffffffffffffffffffffffffffffffff\n      and\n      0x23b872dd\n        /* \"PixelParkSale.sol\":4085:4093  listings */\n      0x03\n        /* \"PixelParkSale.sol\":4085:4104  listings[listingId] */\n      0x00\n        /* \"PixelParkSale.sol\":4094:4103  listingId */\n      dup5\n        /* \"PixelParkSale.sol\":4085:4104  listings[listingId] */\n      dup2\n      mstore\n      0x20\n      add\n      swap1\n      dup2\n      mstore\n      0x20\n      add\n      0x00\n      keccak256\n        /* \"PixelParkSale.sol\":4085:4110  listings[listingId].owner */\n      0x06\n      add\n      0x00\n      swap1\n      sload\n      swap1\n      0x0100\n      exp\n      swap1\n      div\n      0xffffffffffffffffffffffffffffffffffffffff\n      and\n        /* \"PixelParkSale.sol\":4125:4135  msg.sender */\n      caller\n        /* \"PixelParkSale.sol\":4150:4158  listings */\n      0x03\n        /* \"PixelParkSale.sol\":4150:4169  listings[listingId] */\n      0x00\n        /* \"PixelParkSale.sol\":4159:4168  listingId */\n      dup7\n        /* \"PixelParkSale.sol\":4150:4169  listings[listingId] */\n      dup2\n      mstore\n      0x20\n      add\n      swap1\n      dup2\n      mstore\n      0x20\n      add\n      0x00\n      keccak256\n        /* \"PixelParkSale.sol\":4150:4177  listings[listingId].tokenId */\n      0x01\n      add\n      sload\n        /* \"PixelParkSale.sol\":4016:4188  IERC721(listings[listingId].tokenAddress).transferFrom(\r... */\n      mload(0x40)\n      dup5\n      0xffffffff\n      and\n      0xe0\n      shl\n      dup2\n      mstore\n      0x04\n      add\n      tag_133\n      swap4\n      swap3\n      swap2\n      swap1\n      tag_104\n      jump\t// in\n    tag_133:\n      0x00\n      mload(0x40)\n      dup1\n      dup4\n      sub\n      dup2\n      0x00\n      dup8\n      dup1\n      extcodesize\n      iszero\n      dup1\n      iszero\n      tag_134\n      jumpi\n      0x00\n      dup1\n      revert\n    tag_134:\n      pop\n      gas\n      call\n      iszero\n      dup1\n      iszero\n      tag_136\n      jumpi\n      returndatasize\n      0x00\n      dup1\n      returndatacopy\n      revert(0x00, returndatasize)\n    tag_136:\n      pop\n      pop\n      pop\n      pop\n        /* \"PixelParkSale.sol\":3630:4196  function executeAuction(uint256 listingId) public payable onlyOwner {\r... */\n      pop\n      jump\t// out\n        /* \"PixelParkSale.sol\":4204:4303  function cancelAuction() public onlyOwner {\r... */\n    tag_61:\n        /* \"PixelParkSale.sol\":2272:2282  auctioneer */\n      0x05\n      0x00\n      swap1\n      sload\n      swap1\n      0x0100\n      exp\n      swap1\n      div\n      0xffffffffffffffffffffffffffffffffffffffff\n      and\n        /* \"PixelParkSale.sol\":2258:2282  msg.sender == auctioneer */\n      0xffffffffffffffffffffffffffffffffffffffff\n      and\n        /* \"PixelParkSale.sol\":2258:2268  msg.sender */\n      caller\n        /* \"PixelParkSale.sol\":2258:2282  msg.sender == auctioneer */\n      0xffffffffffffffffffffffffffffffffffffffff\n      and\n      eq\n        /* \"PixelParkSale.sol\":2236:2360  require(\r... */\n      tag_138\n      jumpi\n      mload(0x40)\n      0x08c379a000000000000000000000000000000000000000000000000000000000\n      dup2\n      mstore\n      0x04\n      add\n      tag_139\n      swap1\n      tag_122\n      jump\t// in\n    tag_139:\n      mload(0x40)\n      dup1\n      swap2\n      sub\n      swap1\n      revert\n    tag_138:\n        /* \"PixelParkSale.sol\":4272:4295  Auction_State.Cancelled */\n      0x03\n        /* \"PixelParkSale.sol\":4257:4269  auctionState */\n      0x00\n      dup1\n        /* \"PixelParkSale.sol\":4257:4295  auctionState = Auction_State.Cancelled */\n      0x0100\n      exp\n      dup2\n      sload\n      dup2\n      0xff\n      mul\n      not\n      and\n      swap1\n      dup4\n      0x03\n      dup2\n      gt\n      iszero\n      tag_141\n      jumpi\n      tag_142\n      tag_128\n      jump\t// in\n    tag_142:\n    tag_141:\n      mul\n      or\n      swap1\n      sstore\n      pop\n        /* \"PixelParkSale.sol\":4204:4303  function cancelAuction() public onlyOwner {\r... */\n      jump\t// out\n        /* \"PixelParkSale.sol\":1637:1668  uint256 public AUCTION_DURATION */\n    tag_64:\n      sload(0x0a)\n      dup2\n      jump\t// out\n        /* \"PixelParkSale.sol\":1711:1735  uint256 public MIN_PRICE */\n    tag_68:\n      sload(0x0b)\n      dup2\n      jump\t// out\n        /* \"PixelParkSale.sol\":1785:1807  uint256 public MIN_BID */\n    tag_72:\n      sload(0x0c)\n      dup2\n      jump\t// out\n        /* \"PixelParkSale.sol\":941:982  mapping(uint256 => Asset) public listings */\n    tag_77:\n      mstore(0x20, 0x03)\n      dup1\n      0x00\n      mstore\n      keccak256(0x00, 0x40)\n      0x00\n      swap2\n      pop\n      swap1\n      pop\n      dup1\n      0x00\n      add\n      0x00\n      swap1\n      sload\n      swap1\n      0x0100\n      exp\n      swap1\n      div\n      0xffffffffffffffffffffffffffffffffffffffff\n      and\n      swap1\n      dup1\n      0x01\n      add\n      sload\n      swap1\n      dup1\n      0x02\n      add\n      0x00\n      swap1\n      sload\n      swap1\n      0x0100\n      exp\n      swap1\n      div\n      0xff\n      and\n      swap1\n      dup1\n      0x03\n      add\n      sload\n      swap1\n      dup1\n      0x04\n      add\n      sload\n      swap1\n      dup1\n      0x05\n      add\n      sload\n      swap1\n      dup1\n      0x06\n      add\n      0x00\n      swap1\n      sload\n      swap1\n      0x0100\n      exp\n      swap1\n      div\n      0xffffffffffffffffffffffffffffffffffffffff\n      and\n      swap1\n      pop\n      dup8\n      jump\t// out\n        /* \"PixelParkSale.sol\":2388:2924  function listForSale(\r... */\n    tag_84:\n        /* \"PixelParkSale.sol\":2590:2597  uint256 */\n      0x00\n        /* \"PixelParkSale.sol\":2610:2629  Asset memory _asset */\n      dup1\n        /* \"PixelParkSale.sol\":2632:2809  Asset(\r... */\n      mload(0x40)\n      dup1\n      0xe0\n      add\n      0x40\n      mstore\n      dup1\n        /* \"PixelParkSale.sol\":2652:2664  tokenAddress */\n      dup10\n        /* \"PixelParkSale.sol\":2632:2809  Asset(\r... */\n      0xffffffffffffffffffffffffffffffffffffffff\n      and\n      dup2\n      mstore\n      0x20\n      add\n        /* \"PixelParkSale.sol\":2679:2686  tokenId */\n      dup9\n        /* \"PixelParkSale.sol\":2632:2809  Asset(\r... */\n      dup2\n      mstore\n      0x20\n      add\n        /* \"PixelParkSale.sol\":2701:2709  saleType */\n      dup8\n        /* \"PixelParkSale.sol\":2632:2809  Asset(\r... */\n      0xff\n      and\n      dup2\n      mstore\n      0x20\n      add\n        /* \"PixelParkSale.sol\":2724:2730  _price */\n      dup7\n        /* \"PixelParkSale.sol\":2632:2809  Asset(\r... */\n      dup2\n      mstore\n      0x20\n      add\n        /* \"PixelParkSale.sol\":2745:2749  _fee */\n      dup6\n        /* \"PixelParkSale.sol\":2632:2809  Asset(\r... */\n      dup2\n      mstore\n      0x20\n      add\n        /* \"PixelParkSale.sol\":2764:2773  _duration */\n      dup5\n        /* \"PixelParkSale.sol\":2632:2809  Asset(\r... */\n      dup2\n      mstore\n      0x20\n      add\n        /* \"PixelParkSale.sol\":2788:2798  msg.sender */\n      caller\n        /* \"PixelParkSale.sol\":2632:2809  Asset(\r... */\n      0xffffffffffffffffffffffffffffffffffffffff\n      and\n      dup2\n      mstore\n      pop\n        /* \"PixelParkSale.sol\":2610:2809  Asset memory _asset = Asset(\r... */\n      swap1\n      pop\n        /* \"PixelParkSale.sol\":2847:2853  _asset */\n      dup1\n        /* \"PixelParkSale.sol\":2820:2828  listings */\n      0x03\n        /* \"PixelParkSale.sol\":2820:2844  listings[listingCounter] */\n      0x00\n        /* \"PixelParkSale.sol\":2829:2843  listingCounter */\n      sload(0x04)\n        /* \"PixelParkSale.sol\":2820:2844  listings[listingCounter] */\n      dup2\n      mstore\n      0x20\n      add\n      swap1\n      dup2\n      mstore\n      0x20\n      add\n      0x00\n      keccak256\n        /* \"PixelParkSale.sol\":2820:2853  listings[listingCounter] = _asset */\n      0x00\n      dup3\n      add\n      mload\n      dup2\n      0x00\n      add\n      exp(0x0100, 0x00)\n      dup2\n      sload\n      dup2\n      0xffffffffffffffffffffffffffffffffffffffff\n      mul\n      not\n      and\n      swap1\n      dup4\n      0xffffffffffffffffffffffffffffffffffffffff\n      and\n      mul\n      or\n      swap1\n      sstore\n      pop\n      0x20\n      dup3\n      add\n      mload\n      dup2\n      0x01\n      add\n      sstore\n      0x40\n      dup3\n      add\n      mload\n      dup2\n      0x02\n      add\n      exp(0x0100, 0x00)\n      dup2\n      sload\n      dup2\n      0xff\n      mul\n      not\n      and\n      swap1\n      dup4\n      0xff\n      and\n      mul\n      or\n      swap1\n      sstore\n      pop\n      0x60\n      dup3\n      add\n      mload\n      dup2\n      0x03\n      add\n      sstore\n      0x80\n      dup3\n      add\n      mload\n      dup2\n      0x04\n      add\n      sstore\n      0xa0\n      dup3\n      add\n      mload\n      dup2\n      0x05\n      add\n      sstore\n      0xc0\n      dup3\n      add\n      mload\n      dup2\n      0x06\n      add\n      exp(0x0100, 0x00)\n      dup2\n      sload\n      dup2\n      0xffffffffffffffffffffffffffffffffffffffff\n      mul\n      not\n      and\n      swap1\n      dup4\n      0xffffffffffffffffffffffffffffffffffffffff\n      and\n      mul\n      or\n      swap1\n      sstore\n      pop\n      swap1\n      pop\n      pop\n        /* \"PixelParkSale.sol\":2864:2878  listingCounter */\n      0x04\n      0x00\n        /* \"PixelParkSale.sol\":2864:2880  listingCounter++ */\n      dup2\n      sload\n      dup1\n      swap3\n      swap2\n      swap1\n      tag_144\n      swap1\n      tag_145\n      jump\t// in\n    tag_144:\n      swap2\n      swap1\n      pop\n      sstore\n      pop\n        /* \"PixelParkSale.sol\":2915:2916  1 */\n      0x01\n        /* \"PixelParkSale.sol\":2898:2912  listingCounter */\n      sload(0x04)\n        /* \"PixelParkSale.sol\":2898:2916  listingCounter - 1 */\n      tag_146\n      swap2\n      swap1\n      tag_147\n      jump\t// in\n    tag_146:\n        /* \"PixelParkSale.sol\":2891:2916  return listingCounter - 1 */\n      swap2\n      pop\n      pop\n        /* \"PixelParkSale.sol\":2388:2924  function listForSale(\r... */\n      swap7\n      swap6\n      pop\n      pop\n      pop\n      pop\n      pop\n      pop\n      jump\t// out\n        /* \"PixelParkSale.sol\":1484:1505  address public bidder */\n    tag_88:\n      0x09\n      0x00\n      swap1\n      sload\n      swap1\n      0x0100\n      exp\n      swap1\n      div\n      0xffffffffffffffffffffffffffffffffffffffff\n      and\n      dup2\n      jump\t// out\n        /* \"PixelParkSale.sol\":4311:4450  function finalizeAuction() public payable{\r... */\n    tag_91:\n        /* \"PixelParkSale.sol\":4387:4410  Auction_State.Cancelled */\n      0x03\n        /* \"PixelParkSale.sol\":4371:4410  auctionState == Auction_State.Cancelled */\n      dup1\n      dup2\n      gt\n      iszero\n      tag_149\n      jumpi\n      tag_150\n      tag_128\n      jump\t// in\n    tag_150:\n    tag_149:\n        /* \"PixelParkSale.sol\":4371:4383  auctionState */\n      0x00\n      dup1\n      sload\n      swap1\n      0x0100\n      exp\n      swap1\n      div\n      0xff\n      and\n        /* \"PixelParkSale.sol\":4371:4410  auctionState == Auction_State.Cancelled */\n      0x03\n      dup2\n      gt\n      iszero\n      tag_151\n      jumpi\n      tag_152\n      tag_128\n      jump\t// in\n    tag_152:\n    tag_151:\n      eq\n        /* \"PixelParkSale.sol\":4371:4440  auctionState == Auction_State.Cancelled || block.timestamp>endAuction */\n      dup1\n      tag_153\n      jumpi\n      pop\n        /* \"PixelParkSale.sol\":4430:4440  endAuction */\n      sload(0x07)\n        /* \"PixelParkSale.sol\":4414:4429  block.timestamp */\n      timestamp\n        /* \"PixelParkSale.sol\":4414:4440  block.timestamp>endAuction */\n      gt\n        /* \"PixelParkSale.sol\":4371:4440  auctionState == Auction_State.Cancelled || block.timestamp>endAuction */\n    tag_153:\n        /* \"PixelParkSale.sol\":4363:4442  require(auctionState == Auction_State.Cancelled || block.timestamp>endAuction ) */\n      tag_154\n      jumpi\n      0x00\n      dup1\n      revert\n    tag_154:\n        /* \"PixelParkSale.sol\":4311:4450  function finalizeAuction() public payable{\r... */\n      jump\t// out\n        /* \"PixelParkSale.sol\":1307:1332  uint256 public endAuction */\n    tag_94:\n      sload(0x07)\n      dup2\n      jump\t// out\n        /* \"#utility.yul\":7:146   */\n    tag_156:\n        /* \"#utility.yul\":53:58   */\n      0x00\n        /* \"#utility.yul\":91:97   */\n      dup2\n        /* \"#utility.yul\":78:98   */\n      calldataload\n        /* \"#utility.yul\":69:98   */\n      swap1\n      pop\n        /* \"#utility.yul\":107:140   */\n      tag_158\n        /* \"#utility.yul\":134:139   */\n      dup2\n        /* \"#utility.yul\":107:140   */\n      tag_159\n      jump\t// in\n    tag_158:\n        /* \"#utility.yul\":7:146   */\n      swap3\n      swap2\n      pop\n      pop\n      jump\t// out\n        /* \"#utility.yul\":152:291   */\n    tag_160:\n        /* \"#utility.yul\":198:203   */\n      0x00\n        /* \"#utility.yul\":236:242   */\n      dup2\n        /* \"#utility.yul\":223:243   */\n      calldataload\n        /* \"#utility.yul\":214:243   */\n      swap1\n      pop\n        /* \"#utility.yul\":252:285   */\n      tag_162\n        /* \"#utility.yul\":279:284   */\n      dup2\n        /* \"#utility.yul\":252:285   */\n      tag_163\n      jump\t// in\n    tag_162:\n        /* \"#utility.yul\":152:291   */\n      swap3\n      swap2\n      pop\n      pop\n      jump\t// out\n        /* \"#utility.yul\":297:432   */\n    tag_164:\n        /* \"#utility.yul\":341:346   */\n      0x00\n        /* \"#utility.yul\":379:385   */\n      dup2\n        /* \"#utility.yul\":366:386   */\n      calldataload\n        /* \"#utility.yul\":357:386   */\n      swap1\n      pop\n        /* \"#utility.yul\":395:426   */\n      tag_166\n        /* \"#utility.yul\":420:425   */\n      dup2\n        /* \"#utility.yul\":395:426   */\n      tag_167\n      jump\t// in\n    tag_166:\n        /* \"#utility.yul\":297:432   */\n      swap3\n      swap2\n      pop\n      pop\n      jump\t// out\n        /* \"#utility.yul\":438:1491   */\n    tag_83:\n        /* \"#utility.yul\":540:546   */\n      0x00\n        /* \"#utility.yul\":548:554   */\n      dup1\n        /* \"#utility.yul\":556:562   */\n      0x00\n        /* \"#utility.yul\":564:570   */\n      dup1\n        /* \"#utility.yul\":572:578   */\n      0x00\n        /* \"#utility.yul\":580:586   */\n      dup1\n        /* \"#utility.yul\":629:632   */\n      0xc0\n        /* \"#utility.yul\":617:626   */\n      dup8\n        /* \"#utility.yul\":608:615   */\n      dup10\n        /* \"#utility.yul\":604:627   */\n      sub\n        /* \"#utility.yul\":600:633   */\n      slt\n        /* \"#utility.yul\":597:717   */\n      iszero\n      tag_169\n      jumpi\n        /* \"#utility.yul\":636:715   */\n      tag_170\n      tag_171\n      jump\t// in\n    tag_170:\n        /* \"#utility.yul\":597:717   */\n    tag_169:\n        /* \"#utility.yul\":756:757   */\n      0x00\n        /* \"#utility.yul\":781:834   */\n      tag_172\n        /* \"#utility.yul\":826:833   */\n      dup10\n        /* \"#utility.yul\":817:823   */\n      dup3\n        /* \"#utility.yul\":806:815   */\n      dup11\n        /* \"#utility.yul\":802:824   */\n      add\n        /* \"#utility.yul\":781:834   */\n      tag_156\n      jump\t// in\n    tag_172:\n        /* \"#utility.yul\":771:834   */\n      swap7\n      pop\n        /* \"#utility.yul\":727:844   */\n      pop\n        /* \"#utility.yul\":883:885   */\n      0x20\n        /* \"#utility.yul\":909:962   */\n      tag_173\n        /* \"#utility.yul\":954:961   */\n      dup10\n        /* \"#utility.yul\":945:951   */\n      dup3\n        /* \"#utility.yul\":934:943   */\n      dup11\n        /* \"#utility.yul\":930:952   */\n      add\n        /* \"#utility.yul\":909:962   */\n      tag_160\n      jump\t// in\n    tag_173:\n        /* \"#utility.yul\":899:962   */\n      swap6\n      pop\n        /* \"#utility.yul\":854:972   */\n      pop\n        /* \"#utility.yul\":1011:1013   */\n      0x40\n        /* \"#utility.yul\":1037:1088   */\n      tag_174\n        /* \"#utility.yul\":1080:1087   */\n      dup10\n        /* \"#utility.yul\":1071:1077   */\n      dup3\n        /* \"#utility.yul\":1060:1069   */\n      dup11\n        /* \"#utility.yul\":1056:1078   */\n      add\n        /* \"#utility.yul\":1037:1088   */\n      tag_164\n      jump\t// in\n    tag_174:\n        /* \"#utility.yul\":1027:1088   */\n      swap5\n      pop\n        /* \"#utility.yul\":982:1098   */\n      pop\n        /* \"#utility.yul\":1137:1139   */\n      0x60\n        /* \"#utility.yul\":1163:1216   */\n      tag_175\n        /* \"#utility.yul\":1208:1215   */\n      dup10\n        /* \"#utility.yul\":1199:1205   */\n      dup3\n        /* \"#utility.yul\":1188:1197   */\n      dup11\n        /* \"#utility.yul\":1184:1206   */\n      add\n        /* \"#utility.yul\":1163:1216   */\n      tag_160\n      jump\t// in\n    tag_175:\n        /* \"#utility.yul\":1153:1216   */\n      swap4\n      pop\n        /* \"#utility.yul\":1108:1226   */\n      pop\n        /* \"#utility.yul\":1265:1268   */\n      0x80\n        /* \"#utility.yul\":1292:1345   */\n      tag_176\n        /* \"#utility.yul\":1337:1344   */\n      dup10\n        /* \"#utility.yul\":1328:1334   */\n      dup3\n        /* \"#utility.yul\":1317:1326   */\n      dup11\n        /* \"#utility.yul\":1313:1335   */\n      add\n        /* \"#utility.yul\":1292:1345   */\n      tag_160\n      jump\t// in\n    tag_176:\n        /* \"#utility.yul\":1282:1345   */\n      swap3\n      pop\n        /* \"#utility.yul\":1236:1355   */\n      pop\n        /* \"#utility.yul\":1394:1397   */\n      0xa0\n        /* \"#utility.yul\":1421:1474   */\n      tag_177\n        /* \"#utility.yul\":1466:1473   */\n      dup10\n        /* \"#utility.yul\":1457:1463   */\n      dup3\n        /* \"#utility.yul\":1446:1455   */\n      dup11\n        /* \"#utility.yul\":1442:1464   */\n      add\n        /* \"#utility.yul\":1421:1474   */\n      tag_160\n      jump\t// in\n    tag_177:\n        /* \"#utility.yul\":1411:1474   */\n      swap2\n      pop\n        /* \"#utility.yul\":1365:1484   */\n      pop\n        /* \"#utility.yul\":438:1491   */\n      swap3\n      swap6\n      pop\n      swap3\n      swap6\n      pop\n      swap3\n      swap6\n      jump\t// out\n        /* \"#utility.yul\":1497:1826   */\n    tag_27:\n        /* \"#utility.yul\":1556:1562   */\n      0x00\n        /* \"#utility.yul\":1605:1607   */\n      0x20\n        /* \"#utility.yul\":1593:1602   */\n      dup3\n        /* \"#utility.yul\":1584:1591   */\n      dup5\n        /* \"#utility.yul\":1580:1603   */\n      sub\n        /* \"#utility.yul\":1576:1608   */\n      slt\n        /* \"#utility.yul\":1573:1692   */\n      iszero\n      tag_179\n      jumpi\n        /* \"#utility.yul\":1611:1690   */\n      tag_180\n      tag_171\n      jump\t// in\n    tag_180:\n        /* \"#utility.yul\":1573:1692   */\n    tag_179:\n        /* \"#utility.yul\":1731:1732   */\n      0x00\n        /* \"#utility.yul\":1756:1809   */\n      tag_181\n        /* \"#utility.yul\":1801:1808   */\n      dup5\n        /* \"#utility.yul\":1792:1798   */\n      dup3\n        /* \"#utility.yul\":1781:1790   */\n      dup6\n        /* \"#utility.yul\":1777:1799   */\n      add\n        /* \"#utility.yul\":1756:1809   */\n      tag_160\n      jump\t// in\n    tag_181:\n        /* \"#utility.yul\":1746:1809   */\n      swap2\n      pop\n        /* \"#utility.yul\":1702:1819   */\n      pop\n        /* \"#utility.yul\":1497:1826   */\n      swap3\n      swap2\n      pop\n      pop\n      jump\t// out\n        /* \"#utility.yul\":1832:2306   */\n    tag_36:\n        /* \"#utility.yul\":1900:1906   */\n      0x00\n        /* \"#utility.yul\":1908:1914   */\n      dup1\n        /* \"#utility.yul\":1957:1959   */\n      0x40\n        /* \"#utility.yul\":1945:1954   */\n      dup4\n        /* \"#utility.yul\":1936:1943   */\n      dup6\n        /* \"#utility.yul\":1932:1955   */\n      sub\n        /* \"#utility.yul\":1928:1960   */\n      slt\n        /* \"#utility.yul\":1925:2044   */\n      iszero\n      tag_183\n      jumpi\n        /* \"#utility.yul\":1963:2042   */\n      tag_184\n      tag_171\n      jump\t// in\n    tag_184:\n        /* \"#utility.yul\":1925:2044   */\n    tag_183:\n        /* \"#utility.yul\":2083:2084   */\n      0x00\n        /* \"#utility.yul\":2108:2161   */\n      tag_185\n        /* \"#utility.yul\":2153:2160   */\n      dup6\n        /* \"#utility.yul\":2144:2150   */\n      dup3\n        /* \"#utility.yul\":2133:2142   */\n      dup7\n        /* \"#utility.yul\":2129:2151   */\n      add\n        /* \"#utility.yul\":2108:2161   */\n      tag_160\n      jump\t// in\n    tag_185:\n        /* \"#utility.yul\":2098:2161   */\n      swap3\n      pop\n        /* \"#utility.yul\":2054:2171   */\n      pop\n        /* \"#utility.yul\":2210:2212   */\n      0x20\n        /* \"#utility.yul\":2236:2289   */\n      tag_186\n        /* \"#utility.yul\":2281:2288   */\n      dup6\n        /* \"#utility.yul\":2272:2278   */\n      dup3\n        /* \"#utility.yul\":2261:2270   */\n      dup7\n        /* \"#utility.yul\":2257:2279   */\n      add\n        /* \"#utility.yul\":2236:2289   */\n      tag_160\n      jump\t// in\n    tag_186:\n        /* \"#utility.yul\":2226:2289   */\n      swap2\n      pop\n        /* \"#utility.yul\":2181:2299   */\n      pop\n        /* \"#utility.yul\":1832:2306   */\n      swap3\n      pop\n      swap3\n      swap1\n      pop\n      jump\t// out\n        /* \"#utility.yul\":2312:2430   */\n    tag_187:\n        /* \"#utility.yul\":2399:2423   */\n      tag_189\n        /* \"#utility.yul\":2417:2422   */\n      dup2\n        /* \"#utility.yul\":2399:2423   */\n      tag_190\n      jump\t// in\n    tag_189:\n        /* \"#utility.yul\":2394:2397   */\n      dup3\n        /* \"#utility.yul\":2387:2424   */\n      mstore\n        /* \"#utility.yul\":2312:2430   */\n      pop\n      pop\n      jump\t// out\n        /* \"#utility.yul\":2436:2597   */\n    tag_191:\n        /* \"#utility.yul\":2538:2590   */\n      tag_193\n        /* \"#utility.yul\":2584:2589   */\n      dup2\n        /* \"#utility.yul\":2538:2590   */\n      tag_194\n      jump\t// in\n    tag_193:\n        /* \"#utility.yul\":2533:2536   */\n      dup3\n        /* \"#utility.yul\":2526:2591   */\n      mstore\n        /* \"#utility.yul\":2436:2597   */\n      pop\n      pop\n      jump\t// out\n        /* \"#utility.yul\":2603:2969   */\n    tag_195:\n        /* \"#utility.yul\":2745:2748   */\n      0x00\n        /* \"#utility.yul\":2766:2833   */\n      tag_197\n        /* \"#utility.yul\":2830:2832   */\n      0x16\n        /* \"#utility.yul\":2825:2828   */\n      dup4\n        /* \"#utility.yul\":2766:2833   */\n      tag_198\n      jump\t// in\n    tag_197:\n        /* \"#utility.yul\":2759:2833   */\n      swap2\n      pop\n        /* \"#utility.yul\":2842:2935   */\n      tag_199\n        /* \"#utility.yul\":2931:2934   */\n      dup3\n        /* \"#utility.yul\":2842:2935   */\n      tag_200\n      jump\t// in\n    tag_199:\n        /* \"#utility.yul\":2960:2962   */\n      0x20\n        /* \"#utility.yul\":2955:2958   */\n      dup3\n        /* \"#utility.yul\":2951:2963   */\n      add\n        /* \"#utility.yul\":2944:2963   */\n      swap1\n      pop\n        /* \"#utility.yul\":2603:2969   */\n      swap2\n      swap1\n      pop\n      jump\t// out\n        /* \"#utility.yul\":2975:3341   */\n    tag_201:\n        /* \"#utility.yul\":3117:3120   */\n      0x00\n        /* \"#utility.yul\":3138:3205   */\n      tag_203\n        /* \"#utility.yul\":3202:3204   */\n      0x32\n        /* \"#utility.yul\":3197:3200   */\n      dup4\n        /* \"#utility.yul\":3138:3205   */\n      tag_198\n      jump\t// in\n    tag_203:\n        /* \"#utility.yul\":3131:3205   */\n      swap2\n      pop\n        /* \"#utility.yul\":3214:3307   */\n      tag_204\n        /* \"#utility.yul\":3303:3306   */\n      dup3\n        /* \"#utility.yul\":3214:3307   */\n      tag_205\n      jump\t// in\n    tag_204:\n        /* \"#utility.yul\":3332:3334   */\n      0x40\n        /* \"#utility.yul\":3327:3330   */\n      dup3\n        /* \"#utility.yul\":3323:3335   */\n      add\n        /* \"#utility.yul\":3316:3335   */\n      swap1\n      pop\n        /* \"#utility.yul\":2975:3341   */\n      swap2\n      swap1\n      pop\n      jump\t// out\n        /* \"#utility.yul\":3347:3713   */\n    tag_206:\n        /* \"#utility.yul\":3489:3492   */\n      0x00\n        /* \"#utility.yul\":3510:3577   */\n      tag_208\n        /* \"#utility.yul\":3574:3576   */\n      0x12\n        /* \"#utility.yul\":3569:3572   */\n      dup4\n        /* \"#utility.yul\":3510:3577   */\n      tag_198\n      jump\t// in\n    tag_208:\n        /* \"#utility.yul\":3503:3577   */\n      swap2\n      pop\n        /* \"#utility.yul\":3586:3679   */\n      tag_209\n        /* \"#utility.yul\":3675:3678   */\n      dup3\n        /* \"#utility.yul\":3586:3679   */\n      tag_210\n      jump\t// in\n    tag_209:\n        /* \"#utility.yul\":3704:3706   */\n      0x20\n        /* \"#utility.yul\":3699:3702   */\n      dup3\n        /* \"#utility.yul\":3695:3707   */\n      add\n        /* \"#utility.yul\":3688:3707   */\n      swap1\n      pop\n        /* \"#utility.yul\":3347:3713   */\n      swap2\n      swap1\n      pop\n      jump\t// out\n        /* \"#utility.yul\":3719:4085   */\n    tag_211:\n        /* \"#utility.yul\":3861:3864   */\n      0x00\n        /* \"#utility.yul\":3882:3949   */\n      tag_213\n        /* \"#utility.yul\":3946:3948   */\n      0x33\n        /* \"#utility.yul\":3941:3944   */\n      dup4\n        /* \"#utility.yul\":3882:3949   */\n      tag_198\n      jump\t// in\n    tag_213:\n        /* \"#utility.yul\":3875:3949   */\n      swap2\n      pop\n        /* \"#utility.yul\":3958:4051   */\n      tag_214\n        /* \"#utility.yul\":4047:4050   */\n      dup3\n        /* \"#utility.yul\":3958:4051   */\n      tag_215\n      jump\t// in\n    tag_214:\n        /* \"#utility.yul\":4076:4078   */\n      0x40\n        /* \"#utility.yul\":4071:4074   */\n      dup3\n        /* \"#utility.yul\":4067:4079   */\n      add\n        /* \"#utility.yul\":4060:4079   */\n      swap1\n      pop\n        /* \"#utility.yul\":3719:4085   */\n      swap2\n      swap1\n      pop\n      jump\t// out\n        /* \"#utility.yul\":4091:4457   */\n    tag_216:\n        /* \"#utility.yul\":4233:4236   */\n      0x00\n        /* \"#utility.yul\":4254:4321   */\n      tag_218\n        /* \"#utility.yul\":4318:4320   */\n      0x22\n        /* \"#utility.yul\":4313:4316   */\n      dup4\n        /* \"#utility.yul\":4254:4321   */\n      tag_198\n      jump\t// in\n    tag_218:\n        /* \"#utility.yul\":4247:4321   */\n      swap2\n      pop\n        /* \"#utility.yul\":4330:4423   */\n      tag_219\n        /* \"#utility.yul\":4419:4422   */\n      dup3\n        /* \"#utility.yul\":4330:4423   */\n      tag_220\n      jump\t// in\n    tag_219:\n        /* \"#utility.yul\":4448:4450   */\n      0x40\n        /* \"#utility.yul\":4443:4446   */\n      dup3\n        /* \"#utility.yul\":4439:4451   */\n      add\n        /* \"#utility.yul\":4432:4451   */\n      swap1\n      pop\n        /* \"#utility.yul\":4091:4457   */\n      swap2\n      swap1\n      pop\n      jump\t// out\n        /* \"#utility.yul\":4463:4581   */\n    tag_221:\n        /* \"#utility.yul\":4550:4574   */\n      tag_223\n        /* \"#utility.yul\":4568:4573   */\n      dup2\n        /* \"#utility.yul\":4550:4574   */\n      tag_224\n      jump\t// in\n    tag_223:\n        /* \"#utility.yul\":4545:4548   */\n      dup3\n        /* \"#utility.yul\":4538:4575   */\n      mstore\n        /* \"#utility.yul\":4463:4581   */\n      pop\n      pop\n      jump\t// out\n        /* \"#utility.yul\":4587:4699   */\n    tag_225:\n        /* \"#utility.yul\":4670:4692   */\n      tag_227\n        /* \"#utility.yul\":4686:4691   */\n      dup2\n        /* \"#utility.yul\":4670:4692   */\n      tag_228\n      jump\t// in\n    tag_227:\n        /* \"#utility.yul\":4665:4668   */\n      dup3\n        /* \"#utility.yul\":4658:4693   */\n      mstore\n        /* \"#utility.yul\":4587:4699   */\n      pop\n      pop\n      jump\t// out\n        /* \"#utility.yul\":4705:4927   */\n    tag_42:\n        /* \"#utility.yul\":4798:4802   */\n      0x00\n        /* \"#utility.yul\":4836:4838   */\n      0x20\n        /* \"#utility.yul\":4825:4834   */\n      dup3\n        /* \"#utility.yul\":4821:4839   */\n      add\n        /* \"#utility.yul\":4813:4839   */\n      swap1\n      pop\n        /* \"#utility.yul\":4849:4920   */\n      tag_230\n        /* \"#utility.yul\":4917:4918   */\n      0x00\n        /* \"#utility.yul\":4906:4915   */\n      dup4\n        /* \"#utility.yul\":4902:4919   */\n      add\n        /* \"#utility.yul\":4893:4899   */\n      dup5\n        /* \"#utility.yul\":4849:4920   */\n      tag_187\n      jump\t// in\n    tag_230:\n        /* \"#utility.yul\":4705:4927   */\n      swap3\n      swap2\n      pop\n      pop\n      jump\t// out\n        /* \"#utility.yul\":4933:5375   */\n    tag_104:\n        /* \"#utility.yul\":5082:5086   */\n      0x00\n        /* \"#utility.yul\":5120:5122   */\n      0x60\n        /* \"#utility.yul\":5109:5118   */\n      dup3\n        /* \"#utility.yul\":5105:5123   */\n      add\n        /* \"#utility.yul\":5097:5123   */\n      swap1\n      pop\n        /* \"#utility.yul\":5133:5204   */\n      tag_232\n        /* \"#utility.yul\":5201:5202   */\n      0x00\n        /* \"#utility.yul\":5190:5199   */\n      dup4\n        /* \"#utility.yul\":5186:5203   */\n      add\n        /* \"#utility.yul\":5177:5183   */\n      dup7\n        /* \"#utility.yul\":5133:5204   */\n      tag_187\n      jump\t// in\n    tag_232:\n        /* \"#utility.yul\":5214:5286   */\n      tag_233\n        /* \"#utility.yul\":5282:5284   */\n      0x20\n        /* \"#utility.yul\":5271:5280   */\n      dup4\n        /* \"#utility.yul\":5267:5285   */\n      add\n        /* \"#utility.yul\":5258:5264   */\n      dup6\n        /* \"#utility.yul\":5214:5286   */\n      tag_187\n      jump\t// in\n    tag_233:\n        /* \"#utility.yul\":5296:5368   */\n      tag_234\n        /* \"#utility.yul\":5364:5366   */\n      0x40\n        /* \"#utility.yul\":5353:5362   */\n      dup4\n        /* \"#utility.yul\":5349:5367   */\n      add\n        /* \"#utility.yul\":5340:5346   */\n      dup5\n        /* \"#utility.yul\":5296:5368   */\n      tag_221\n      jump\t// in\n    tag_234:\n        /* \"#utility.yul\":4933:5375   */\n      swap5\n      swap4\n      pop\n      pop\n      pop\n      pop\n      jump\t// out\n        /* \"#utility.yul\":5381:6259   */\n    tag_79:\n        /* \"#utility.yul\":5638:5642   */\n      0x00\n        /* \"#utility.yul\":5676:5679   */\n      0xe0\n        /* \"#utility.yul\":5665:5674   */\n      dup3\n        /* \"#utility.yul\":5661:5680   */\n      add\n        /* \"#utility.yul\":5653:5680   */\n      swap1\n      pop\n        /* \"#utility.yul\":5690:5761   */\n      tag_236\n        /* \"#utility.yul\":5758:5759   */\n      0x00\n        /* \"#utility.yul\":5747:5756   */\n      dup4\n        /* \"#utility.yul\":5743:5760   */\n      add\n        /* \"#utility.yul\":5734:5740   */\n      dup11\n        /* \"#utility.yul\":5690:5761   */\n      tag_187\n      jump\t// in\n    tag_236:\n        /* \"#utility.yul\":5771:5843   */\n      tag_237\n        /* \"#utility.yul\":5839:5841   */\n      0x20\n        /* \"#utility.yul\":5828:5837   */\n      dup4\n        /* \"#utility.yul\":5824:5842   */\n      add\n        /* \"#utility.yul\":5815:5821   */\n      dup10\n        /* \"#utility.yul\":5771:5843   */\n      tag_221\n      jump\t// in\n    tag_237:\n        /* \"#utility.yul\":5853:5921   */\n      tag_238\n        /* \"#utility.yul\":5917:5919   */\n      0x40\n        /* \"#utility.yul\":5906:5915   */\n      dup4\n        /* \"#utility.yul\":5902:5920   */\n      add\n        /* \"#utility.yul\":5893:5899   */\n      dup9\n        /* \"#utility.yul\":5853:5921   */\n      tag_225\n      jump\t// in\n    tag_238:\n        /* \"#utility.yul\":5931:6003   */\n      tag_239\n        /* \"#utility.yul\":5999:6001   */\n      0x60\n        /* \"#utility.yul\":5988:5997   */\n      dup4\n        /* \"#utility.yul\":5984:6002   */\n      add\n        /* \"#utility.yul\":5975:5981   */\n      dup8\n        /* \"#utility.yul\":5931:6003   */\n      tag_221\n      jump\t// in\n    tag_239:\n        /* \"#utility.yul\":6013:6086   */\n      tag_240\n        /* \"#utility.yul\":6081:6084   */\n      0x80\n        /* \"#utility.yul\":6070:6079   */\n      dup4\n        /* \"#utility.yul\":6066:6085   */\n      add\n        /* \"#utility.yul\":6057:6063   */\n      dup7\n        /* \"#utility.yul\":6013:6086   */\n      tag_221\n      jump\t// in\n    tag_240:\n        /* \"#utility.yul\":6096:6169   */\n      tag_241\n        /* \"#utility.yul\":6164:6167   */\n      0xa0\n        /* \"#utility.yul\":6153:6162   */\n      dup4\n        /* \"#utility.yul\":6149:6168   */\n      add\n        /* \"#utility.yul\":6140:6146   */\n      dup6\n        /* \"#utility.yul\":6096:6169   */\n      tag_221\n      jump\t// in\n    tag_241:\n        /* \"#utility.yul\":6179:6252   */\n      tag_242\n        /* \"#utility.yul\":6247:6250   */\n      0xc0\n        /* \"#utility.yul\":6236:6245   */\n      dup4\n        /* \"#utility.yul\":6232:6251   */\n      add\n        /* \"#utility.yul\":6223:6229   */\n      dup5\n        /* \"#utility.yul\":6179:6252   */\n      tag_187\n      jump\t// in\n    tag_242:\n        /* \"#utility.yul\":5381:6259   */\n      swap9\n      swap8\n      pop\n      pop\n      pop\n      pop\n      pop\n      pop\n      pop\n      pop\n      jump\t// out\n        /* \"#utility.yul\":6265:6517   */\n    tag_55:\n        /* \"#utility.yul\":6373:6377   */\n      0x00\n        /* \"#utility.yul\":6411:6413   */\n      0x20\n        /* \"#utility.yul\":6400:6409   */\n      dup3\n        /* \"#utility.yul\":6396:6414   */\n      add\n        /* \"#utility.yul\":6388:6414   */\n      swap1\n      pop\n        /* \"#utility.yul\":6424:6510   */\n      tag_244\n        /* \"#utility.yul\":6507:6508   */\n      0x00\n        /* \"#utility.yul\":6496:6505   */\n      dup4\n        /* \"#utility.yul\":6492:6509   */\n      add\n        /* \"#utility.yul\":6483:6489   */\n      dup5\n        /* \"#utility.yul\":6424:6510   */\n      tag_191\n      jump\t// in\n    tag_244:\n        /* \"#utility.yul\":6265:6517   */\n      swap3\n      swap2\n      pop\n      pop\n      jump\t// out\n        /* \"#utility.yul\":6523:6942   */\n    tag_115:\n        /* \"#utility.yul\":6689:6693   */\n      0x00\n        /* \"#utility.yul\":6727:6729   */\n      0x20\n        /* \"#utility.yul\":6716:6725   */\n      dup3\n        /* \"#utility.yul\":6712:6730   */\n      add\n        /* \"#utility.yul\":6704:6730   */\n      swap1\n      pop\n        /* \"#utility.yul\":6776:6785   */\n      dup2\n        /* \"#utility.yul\":6770:6774   */\n      dup2\n        /* \"#utility.yul\":6766:6786   */\n      sub\n        /* \"#utility.yul\":6762:6763   */\n      0x00\n        /* \"#utility.yul\":6751:6760   */\n      dup4\n        /* \"#utility.yul\":6747:6764   */\n      add\n        /* \"#utility.yul\":6740:6787   */\n      mstore\n        /* \"#utility.yul\":6804:6935   */\n      tag_246\n        /* \"#utility.yul\":6930:6934   */\n      dup2\n        /* \"#utility.yul\":6804:6935   */\n      tag_195\n      jump\t// in\n    tag_246:\n        /* \"#utility.yul\":6796:6935   */\n      swap1\n      pop\n        /* \"#utility.yul\":6523:6942   */\n      swap2\n      swap1\n      pop\n      jump\t// out\n        /* \"#utility.yul\":6948:7367   */\n    tag_122:\n        /* \"#utility.yul\":7114:7118   */\n      0x00\n        /* \"#utility.yul\":7152:7154   */\n      0x20\n        /* \"#utility.yul\":7141:7150   */\n      dup3\n        /* \"#utility.yul\":7137:7155   */\n      add\n        /* \"#utility.yul\":7129:7155   */\n      swap1\n      pop\n        /* \"#utility.yul\":7201:7210   */\n      dup2\n        /* \"#utility.yul\":7195:7199   */\n      dup2\n        /* \"#utility.yul\":7191:7211   */\n      sub\n        /* \"#utility.yul\":7187:7188   */\n      0x00\n        /* \"#utility.yul\":7176:7185   */\n      dup4\n        /* \"#utility.yul\":7172:7189   */\n      add\n        /* \"#utility.yul\":7165:7212   */\n      mstore\n        /* \"#utility.yul\":7229:7360   */\n      tag_248\n        /* \"#utility.yul\":7355:7359   */\n      dup2\n        /* \"#utility.yul\":7229:7360   */\n      tag_201\n      jump\t// in\n    tag_248:\n        /* \"#utility.yul\":7221:7360   */\n      swap1\n      pop\n        /* \"#utility.yul\":6948:7367   */\n      swap2\n      swap1\n      pop\n      jump\t// out\n        /* \"#utility.yul\":7373:7792   */\n    tag_100:\n        /* \"#utility.yul\":7539:7543   */\n      0x00\n        /* \"#utility.yul\":7577:7579   */\n      0x20\n        /* \"#utility.yul\":7566:7575   */\n      dup3\n        /* \"#utility.yul\":7562:7580   */\n      add\n        /* \"#utility.yul\":7554:7580   */\n      swap1\n      pop\n        /* \"#utility.yul\":7626:7635   */\n      dup2\n        /* \"#utility.yul\":7620:7624   */\n      dup2\n        /* \"#utility.yul\":7616:7636   */\n      sub\n        /* \"#utility.yul\":7612:7613   */\n      0x00\n        /* \"#utility.yul\":7601:7610   */\n      dup4\n        /* \"#utility.yul\":7597:7614   */\n      add\n        /* \"#utility.yul\":7590:7637   */\n      mstore\n        /* \"#utility.yul\":7654:7785   */\n      tag_250\n        /* \"#utility.yul\":7780:7784   */\n      dup2\n        /* \"#utility.yul\":7654:7785   */\n      tag_206\n      jump\t// in\n    tag_250:\n        /* \"#utility.yul\":7646:7785   */\n      swap1\n      pop\n        /* \"#utility.yul\":7373:7792   */\n      swap2\n      swap1\n      pop\n      jump\t// out\n        /* \"#utility.yul\":7798:8217   */\n    tag_111:\n        /* \"#utility.yul\":7964:7968   */\n      0x00\n        /* \"#utility.yul\":8002:8004   */\n      0x20\n        /* \"#utility.yul\":7991:8000   */\n      dup3\n        /* \"#utility.yul\":7987:8005   */\n      add\n        /* \"#utility.yul\":7979:8005   */\n      swap1\n      pop\n        /* \"#utility.yul\":8051:8060   */\n      dup2\n        /* \"#utility.yul\":8045:8049   */\n      dup2\n        /* \"#utility.yul\":8041:8061   */\n      sub\n        /* \"#utility.yul\":8037:8038   */\n      0x00\n        /* \"#utility.yul\":8026:8035   */\n      dup4\n        /* \"#utility.yul\":8022:8039   */\n      add\n        /* \"#utility.yul\":8015:8062   */\n      mstore\n        /* \"#utility.yul\":8079:8210   */\n      tag_252\n        /* \"#utility.yul\":8205:8209   */\n      dup2\n        /* \"#utility.yul\":8079:8210   */\n      tag_211\n      jump\t// in\n    tag_252:\n        /* \"#utility.yul\":8071:8210   */\n      swap1\n      pop\n        /* \"#utility.yul\":7798:8217   */\n      swap2\n      swap1\n      pop\n      jump\t// out\n        /* \"#utility.yul\":8223:8642   */\n    tag_118:\n        /* \"#utility.yul\":8389:8393   */\n      0x00\n        /* \"#utility.yul\":8427:8429   */\n      0x20\n        /* \"#utility.yul\":8416:8425   */\n      dup3\n        /* \"#utility.yul\":8412:8430   */\n      add\n        /* \"#utility.yul\":8404:8430   */\n      swap1\n      pop\n        /* \"#utility.yul\":8476:8485   */\n      dup2\n        /* \"#utility.yul\":8470:8474   */\n      dup2\n        /* \"#utility.yul\":8466:8486   */\n      sub\n        /* \"#utility.yul\":8462:8463   */\n      0x00\n        /* \"#utility.yul\":8451:8460   */\n      dup4\n        /* \"#utility.yul\":8447:8464   */\n      add\n        /* \"#utility.yul\":8440:8487   */\n      mstore\n        /* \"#utility.yul\":8504:8635   */\n      tag_254\n        /* \"#utility.yul\":8630:8634   */\n      dup2\n        /* \"#utility.yul\":8504:8635   */\n      tag_216\n      jump\t// in\n    tag_254:\n        /* \"#utility.yul\":8496:8635   */\n      swap1\n      pop\n        /* \"#utility.yul\":8223:8642   */\n      swap2\n      swap1\n      pop\n      jump\t// out\n        /* \"#utility.yul\":8648:8870   */\n    tag_33:\n        /* \"#utility.yul\":8741:8745   */\n      0x00\n        /* \"#utility.yul\":8779:8781   */\n      0x20\n        /* \"#utility.yul\":8768:8777   */\n      dup3\n        /* \"#utility.yul\":8764:8782   */\n      add\n        /* \"#utility.yul\":8756:8782   */\n      swap1\n      pop\n        /* \"#utility.yul\":8792:8863   */\n      tag_256\n        /* \"#utility.yul\":8860:8861   */\n      0x00\n        /* \"#utility.yul\":8849:8858   */\n      dup4\n        /* \"#utility.yul\":8845:8862   */\n      add\n        /* \"#utility.yul\":8836:8842   */\n      dup5\n        /* \"#utility.yul\":8792:8863   */\n      tag_221\n      jump\t// in\n    tag_256:\n        /* \"#utility.yul\":8648:8870   */\n      swap3\n      swap2\n      pop\n      pop\n      jump\t// out\n        /* \"#utility.yul\":8957:9126   */\n    tag_198:\n        /* \"#utility.yul\":9041:9052   */\n      0x00\n        /* \"#utility.yul\":9075:9081   */\n      dup3\n        /* \"#utility.yul\":9070:9073   */\n      dup3\n        /* \"#utility.yul\":9063:9082   */\n      mstore\n        /* \"#utility.yul\":9115:9119   */\n      0x20\n        /* \"#utility.yul\":9110:9113   */\n      dup3\n        /* \"#utility.yul\":9106:9120   */\n      add\n        /* \"#utility.yul\":9091:9120   */\n      swap1\n      pop\n        /* \"#utility.yul\":8957:9126   */\n      swap3\n      swap2\n      pop\n      pop\n      jump\t// out\n        /* \"#utility.yul\":9132:9437   */\n    tag_130:\n        /* \"#utility.yul\":9172:9175   */\n      0x00\n        /* \"#utility.yul\":9191:9211   */\n      tag_261\n        /* \"#utility.yul\":9209:9210   */\n      dup3\n        /* \"#utility.yul\":9191:9211   */\n      tag_224\n      jump\t// in\n    tag_261:\n        /* \"#utility.yul\":9186:9211   */\n      swap2\n      pop\n        /* \"#utility.yul\":9225:9245   */\n      tag_262\n        /* \"#utility.yul\":9243:9244   */\n      dup4\n        /* \"#utility.yul\":9225:9245   */\n      tag_224\n      jump\t// in\n    tag_262:\n        /* \"#utility.yul\":9220:9245   */\n      swap3\n      pop\n        /* \"#utility.yul\":9379:9380   */\n      dup3\n        /* \"#utility.yul\":9311:9377   */\n      0xffffffffffffffffffffffffffffffffffffffffffffffffffffffffffffffff\n        /* \"#utility.yul\":9307:9381   */\n      sub\n        /* \"#utility.yul\":9304:9305   */\n      dup3\n        /* \"#utility.yul\":9301:9382   */\n      gt\n        /* \"#utility.yul\":9298:9405   */\n      iszero\n      tag_263\n      jumpi\n        /* \"#utility.yul\":9385:9403   */\n      tag_264\n      tag_265\n      jump\t// in\n    tag_264:\n        /* \"#utility.yul\":9298:9405   */\n    tag_263:\n        /* \"#utility.yul\":9429:9430   */\n      dup3\n        /* \"#utility.yul\":9426:9427   */\n      dup3\n        /* \"#utility.yul\":9422:9431   */\n      add\n        /* \"#utility.yul\":9415:9431   */\n      swap1\n      pop\n        /* \"#utility.yul\":9132:9437   */\n      swap3\n      swap2\n      pop\n      pop\n      jump\t// out\n        /* \"#utility.yul\":9443:9634   */\n    tag_147:\n        /* \"#utility.yul\":9483:9487   */\n      0x00\n        /* \"#utility.yul\":9503:9523   */\n      tag_267\n        /* \"#utility.yul\":9521:9522   */\n      dup3\n        /* \"#utility.yul\":9503:9523   */\n      tag_224\n      jump\t// in\n    tag_267:\n        /* \"#utility.yul\":9498:9523   */\n      swap2\n      pop\n        /* \"#utility.yul\":9537:9557   */\n      tag_268\n        /* \"#utility.yul\":9555:9556   */\n      dup4\n        /* \"#utility.yul\":9537:9557   */\n      tag_224\n      jump\t// in\n    tag_268:\n        /* \"#utility.yul\":9532:9557   */\n      swap3\n      pop\n        /* \"#utility.yul\":9576:9577   */\n      dup3\n        /* \"#utility.yul\":9573:9574   */\n      dup3\n        /* \"#utility.yul\":9570:9578   */\n      lt\n        /* \"#utility.yul\":9567:9601   */\n      iszero\n      tag_269\n      jumpi\n        /* \"#utility.yul\":9581:9599   */\n      tag_270\n      tag_265\n      jump\t// in\n    tag_270:\n        /* \"#utility.yul\":9567:9601   */\n    tag_269:\n        /* \"#utility.yul\":9626:9627   */\n      dup3\n        /* \"#utility.yul\":9623:9624   */\n      dup3\n        /* \"#utility.yul\":9619:9628   */\n      sub\n        /* \"#utility.yul\":9611:9628   */\n      swap1\n      pop\n        /* \"#utility.yul\":9443:9634   */\n      swap3\n      swap2\n      pop\n      pop\n      jump\t// out\n        /* \"#utility.yul\":9640:9736   */\n    tag_190:\n        /* \"#utility.yul\":9677:9684   */\n      0x00\n        /* \"#utility.yul\":9706:9730   */\n      tag_272\n        /* \"#utility.yul\":9724:9729   */\n      dup3\n        /* \"#utility.yul\":9706:9730   */\n      tag_273\n      jump\t// in\n    tag_272:\n        /* \"#utility.yul\":9695:9730   */\n      swap1\n      pop\n        /* \"#utility.yul\":9640:9736   */\n      swap2\n      swap1\n      pop\n      jump\t// out\n        /* \"#utility.yul\":9742:9887   */\n    tag_274:\n        /* \"#utility.yul\":9796:9803   */\n      0x00\n        /* \"#utility.yul\":9825:9830   */\n      dup2\n        /* \"#utility.yul\":9814:9830   */\n      swap1\n      pop\n        /* \"#utility.yul\":9831:9881   */\n      tag_276\n        /* \"#utility.yul\":9875:9880   */\n      dup3\n        /* \"#utility.yul\":9831:9881   */\n      tag_277\n      jump\t// in\n    tag_276:\n        /* \"#utility.yul\":9742:9887   */\n      swap2\n      swap1\n      pop\n      jump\t// out\n        /* \"#utility.yul\":9893:10019   */\n    tag_273:\n        /* \"#utility.yul\":9930:9937   */\n      0x00\n        /* \"#utility.yul\":9970:10012   */\n      0xffffffffffffffffffffffffffffffffffffffff\n        /* \"#utility.yul\":9963:9968   */\n      dup3\n        /* \"#utility.yul\":9959:10013   */\n      and\n        /* \"#utility.yul\":9948:10013   */\n      swap1\n      pop\n        /* \"#utility.yul\":9893:10019   */\n      swap2\n      swap1\n      pop\n      jump\t// out\n        /* \"#utility.yul\":10025:10102   */\n    tag_224:\n        /* \"#utility.yul\":10062:10069   */\n      0x00\n        /* \"#utility.yul\":10091:10096   */\n      dup2\n        /* \"#utility.yul\":10080:10096   */\n      swap1\n      pop\n        /* \"#utility.yul\":10025:10102   */\n      swap2\n      swap1\n      pop\n      jump\t// out\n        /* \"#utility.yul\":10108:10194   */\n    tag_228:\n        /* \"#utility.yul\":10143:10150   */\n      0x00\n        /* \"#utility.yul\":10183:10187   */\n      0xff\n        /* \"#utility.yul\":10176:10181   */\n      dup3\n        /* \"#utility.yul\":10172:10188   */\n      and\n        /* \"#utility.yul\":10161:10188   */\n      swap1\n      pop\n        /* \"#utility.yul\":10108:10194   */\n      swap2\n      swap1\n      pop\n      jump\t// out\n        /* \"#utility.yul\":10200:10345   */\n    tag_194:\n        /* \"#utility.yul\":10265:10274   */\n      0x00\n        /* \"#utility.yul\":10298:10339   */\n      tag_282\n        /* \"#utility.yul\":10333:10338   */\n      dup3\n        /* \"#utility.yul\":10298:10339   */\n      tag_274\n      jump\t// in\n    tag_282:\n        /* \"#utility.yul\":10285:10339   */\n      swap1\n      pop\n        /* \"#utility.yul\":10200:10345   */\n      swap2\n      swap1\n      pop\n      jump\t// out\n        /* \"#utility.yul\":10351:10584   */\n    tag_145:\n        /* \"#utility.yul\":10390:10393   */\n      0x00\n        /* \"#utility.yul\":10413:10437   */\n      tag_284\n        /* \"#utility.yul\":10431:10436   */\n      dup3\n        /* \"#utility.yul\":10413:10437   */\n      tag_224\n      jump\t// in\n    tag_284:\n        /* \"#utility.yul\":10404:10437   */\n      swap2\n      pop\n        /* \"#utility.yul\":10459:10525   */\n      0xffffffffffffffffffffffffffffffffffffffffffffffffffffffffffffffff\n        /* \"#utility.yul\":10452:10457   */\n      dup3\n        /* \"#utility.yul\":10449:10526   */\n      eq\n        /* \"#utility.yul\":10446:10549   */\n      iszero\n      tag_285\n      jumpi\n        /* \"#utility.yul\":10529:10547   */\n      tag_286\n      tag_265\n      jump\t// in\n    tag_286:\n        /* \"#utility.yul\":10446:10549   */\n    tag_285:\n        /* \"#utility.yul\":10576:10577   */\n      0x01\n        /* \"#utility.yul\":10569:10574   */\n      dup3\n        /* \"#utility.yul\":10565:10578   */\n      add\n        /* \"#utility.yul\":10558:10578   */\n      swap1\n      pop\n        /* \"#utility.yul\":10351:10584   */\n      swap2\n      swap1\n      pop\n      jump\t// out\n        /* \"#utility.yul\":10590:10770   */\n    tag_265:\n        /* \"#utility.yul\":10638:10715   */\n      0x4e487b7100000000000000000000000000000000000000000000000000000000\n        /* \"#utility.yul\":10635:10636   */\n      0x00\n        /* \"#utility.yul\":10628:10716   */\n      mstore\n        /* \"#utility.yul\":10735:10739   */\n      0x11\n        /* \"#utility.yul\":10732:10733   */\n      0x04\n        /* \"#utility.yul\":10725:10740   */\n      mstore\n        /* \"#utility.yul\":10759:10763   */\n      0x24\n        /* \"#utility.yul\":10756:10757   */\n      0x00\n        /* \"#utility.yul\":10749:10764   */\n      revert\n        /* \"#utility.yul\":10776:10956   */\n    tag_128:\n        /* \"#utility.yul\":10824:10901   */\n      0x4e487b7100000000000000000000000000000000000000000000000000000000\n        /* \"#utility.yul\":10821:10822   */\n      0x00\n        /* \"#utility.yul\":10814:10902   */\n      mstore\n        /* \"#utility.yul\":10921:10925   */\n      0x21\n        /* \"#utility.yul\":10918:10919   */\n      0x04\n        /* \"#utility.yul\":10911:10926   */\n      mstore\n        /* \"#utility.yul\":10945:10949   */\n      0x24\n        /* \"#utility.yul\":10942:10943   */\n      0x00\n        /* \"#utility.yul\":10935:10950   */\n      revert\n        /* \"#utility.yul\":11085:11202   */\n    tag_171:\n        /* \"#utility.yul\":11194:11195   */\n      0x00\n        /* \"#utility.yul\":11191:11192   */\n      dup1\n        /* \"#utility.yul\":11184:11196   */\n      revert\n        /* \"#utility.yul\":11208:11380   */\n    tag_200:\n        /* \"#utility.yul\":11348:11372   */\n      0x4e6f7420616e2061756374696f6e206c697374696e6700000000000000000000\n        /* \"#utility.yul\":11344:11345   */\n      0x00\n        /* \"#utility.yul\":11336:11342   */\n      dup3\n        /* \"#utility.yul\":11332:11346   */\n      add\n        /* \"#utility.yul\":11325:11373   */\n      mstore\n        /* \"#utility.yul\":11208:11380   */\n      pop\n      jump\t// out\n        /* \"#utility.yul\":11386:11623   */\n    tag_205:\n        /* \"#utility.yul\":11526:11560   */\n      0x4f776e65722063616e6e6f742062696420616e64206f6e6c79206f776e657220\n        /* \"#utility.yul\":11522:11523   */\n      0x00\n        /* \"#utility.yul\":11514:11520   */\n      dup3\n        /* \"#utility.yul\":11510:11524   */\n      add\n        /* \"#utility.yul\":11503:11561   */\n      mstore\n        /* \"#utility.yul\":11595:11615   */\n      0x68617320616363657373206f6620746869730000000000000000000000000000\n        /* \"#utility.yul\":11590:11592   */\n      0x20\n        /* \"#utility.yul\":11582:11588   */\n      dup3\n        /* \"#utility.yul\":11578:11593   */\n      add\n        /* \"#utility.yul\":11571:11616   */\n      mstore\n        /* \"#utility.yul\":11386:11623   */\n      pop\n      jump\t// out\n        /* \"#utility.yul\":11629:11797   */\n    tag_210:\n        /* \"#utility.yul\":11769:11789   */\n      0x61756374696f6e2074696d6520656e6465640000000000000000000000000000\n        /* \"#utility.yul\":11765:11766   */\n      0x00\n        /* \"#utility.yul\":11757:11763   */\n      dup3\n        /* \"#utility.yul\":11753:11767   */\n      add\n        /* \"#utility.yul\":11746:11790   */\n      mstore\n        /* \"#utility.yul\":11629:11797   */\n      pop\n      jump\t// out\n        /* \"#utility.yul\":11803:12041   */\n    tag_215:\n        /* \"#utility.yul\":11943:11977   */\n      0x4f776e65722063616e6e6f742062696420616e64206f6e6c79206f776e657220\n        /* \"#utility.yul\":11939:11940   */\n      0x00\n        /* \"#utility.yul\":11931:11937   */\n      dup3\n        /* \"#utility.yul\":11927:11941   */\n      add\n        /* \"#utility.yul\":11920:11978   */\n      mstore\n        /* \"#utility.yul\":12012:12033   */\n      0x63616e20657865637574652061756374696f6e00000000000000000000000000\n        /* \"#utility.yul\":12007:12009   */\n      0x20\n        /* \"#utility.yul\":11999:12005   */\n      dup3\n        /* \"#utility.yul\":11995:12010   */\n      add\n        /* \"#utility.yul\":11988:12034   */\n      mstore\n        /* \"#utility.yul\":11803:12041   */\n      pop\n      jump\t// out\n        /* \"#utility.yul\":12047:12268   */\n    tag_220:\n        /* \"#utility.yul\":12187:12221   */\n      0x62696420616d6f756e74206c657373207468616e206c697374696e6720707269\n        /* \"#utility.yul\":12183:12184   */\n      0x00\n        /* \"#utility.yul\":12175:12181   */\n      dup3\n        /* \"#utility.yul\":12171:12185   */\n      add\n        /* \"#utility.yul\":12164:12222   */\n      mstore\n        /* \"#utility.yul\":12256:12260   */\n      0x6365000000000000000000000000000000000000000000000000000000000000\n        /* \"#utility.yul\":12251:12253   */\n      0x20\n        /* \"#utility.yul\":12243:12249   */\n      dup3\n        /* \"#utility.yul\":12239:12254   */\n      add\n        /* \"#utility.yul\":12232:12261   */\n      mstore\n        /* \"#utility.yul\":12047:12268   */\n      pop\n      jump\t// out\n        /* \"#utility.yul\":12274:12396   */\n    tag_277:\n        /* \"#utility.yul\":12364:12365   */\n      0x04\n        /* \"#utility.yul\":12357:12362   */\n      dup2\n        /* \"#utility.yul\":12354:12366   */\n      lt\n        /* \"#utility.yul\":12344:12390   */\n      tag_298\n      jumpi\n        /* \"#utility.yul\":12370:12388   */\n      tag_299\n      tag_128\n      jump\t// in\n    tag_299:\n        /* \"#utility.yul\":12344:12390   */\n    tag_298:\n        /* \"#utility.yul\":12274:12396   */\n      pop\n      jump\t// out\n        /* \"#utility.yul\":12402:12524   */\n    tag_159:\n        /* \"#utility.yul\":12475:12499   */\n      tag_301\n        /* \"#utility.yul\":12493:12498   */\n      dup2\n        /* \"#utility.yul\":12475:12499   */\n      tag_190\n      jump\t// in\n    tag_301:\n        /* \"#utility.yul\":12468:12473   */\n      dup2\n        /* \"#utility.yul\":12465:12500   */\n      eq\n        /* \"#utility.yul\":12455:12518   */\n      tag_302\n      jumpi\n        /* \"#utility.yul\":12514:12515   */\n      0x00\n        /* \"#utility.yul\":12511:12512   */\n      dup1\n        /* \"#utility.yul\":12504:12516   */\n      revert\n        /* \"#utility.yul\":12455:12518   */\n    tag_302:\n        /* \"#utility.yul\":12402:12524   */\n      pop\n      jump\t// out\n        /* \"#utility.yul\":12530:12652   */\n    tag_163:\n        /* \"#utility.yul\":12603:12627   */\n      tag_304\n        /* \"#utility.yul\":12621:12626   */\n      dup2\n        /* \"#utility.yul\":12603:12627   */\n      tag_224\n      jump\t// in\n    tag_304:\n        /* \"#utility.yul\":12596:12601   */\n      dup2\n        /* \"#utility.yul\":12593:12628   */\n      eq\n        /* \"#utility.yul\":12583:12646   */\n      tag_305\n      jumpi\n        /* \"#utility.yul\":12642:12643   */\n      0x00\n        /* \"#utility.yul\":12639:12640   */\n      dup1\n        /* \"#utility.yul\":12632:12644   */\n      revert\n        /* \"#utility.yul\":12583:12646   */\n    tag_305:\n        /* \"#utility.yul\":12530:12652   */\n      pop\n      jump\t// out\n        /* \"#utility.yul\":12658:12776   */\n    tag_167:\n        /* \"#utility.yul\":12729:12751   */\n      tag_307\n        /* \"#utility.yul\":12745:12750   */\n      dup2\n        /* \"#utility.yul\":12729:12751   */\n      tag_228\n      jump\t// in\n    tag_307:\n        /* \"#utility.yul\":12722:12727   */\n      dup2\n        /* \"#utility.yul\":12719:12752   */\n      eq\n        /* \"#utility.yul\":12709:12770   */\n      tag_308\n      jumpi\n        /* \"#utility.yul\":12766:12767   */\n      0x00\n        /* \"#utility.yul\":12763:12764   */\n      dup1\n        /* \"#utility.yul\":12756:12768   */\n      revert\n        /* \"#utility.yul\":12709:12770   */\n    tag_308:\n        /* \"#utility.yul\":12658:12776   */\n      pop\n      jump\t// out\n\n    auxdata: 0xa26469706673582212203a9fa69dd06988929a902d896ae70b1a7821a4ac9decdd7f8d4aab27af182ec364736f6c63430008070033\n}\n",
				"bytecode": {
					"linkReferences": {},
					"object": "608060405260026000806101000a81548160ff021916908360038111156100295761002861006d565b5b0217905550612710600155620f424060025560006004556000600960146101000a81548160ff02191690831515021790555034801561006757600080fd5b5061009c565b7f4e487b7100000000000000000000000000000000000000000000000000000000600052602160045260246000fd5b6114df806100ab6000396000f3fe6080604052600436106101025760003560e01c80638fa8b79011610095578063de74e57b11610064578063de74e57b146102d1578063eb2aa7c614610314578063f496d88214610351578063f77282ab1461037c578063fe67a54b1461038657610109565b80638fa8b79014610239578063a271e52514610250578063ad9f20a61461027b578063ce69cd20146102a657610109565b80636b64c769116100d15780636b64c7691461019c5780636c2c9c7d146101c75780637fb45099146101f25780637fd855ee1461021d57610109565b8063110d35b81461010e57806319afe4731461012a57806357c90de5146101555780635ec2c7bf1461017157610109565b3661010957005b600080fd5b61012860048036038101906101239190610e6d565b6103b1565b005b34801561013657600080fd5b5061013f6105c1565b60405161014c9190611141565b60405180910390f35b61016f600480360381019061016a9190610e9a565b6105c7565b005b34801561017d57600080fd5b50610186610738565b6040516101939190610fc5565b60405180910390f35b3480156101a857600080fd5b506101b161075e565b6040516101be9190611141565b60405180910390f35b3480156101d357600080fd5b506101dc610764565b6040516101e99190611141565b60405180910390f35b3480156101fe57600080fd5b5061020761076a565b6040516102149190611086565b60405180910390f35b61023760048036038101906102329190610e6d565b61077b565b005b34801561024557600080fd5b5061024e610a42565b005b34801561025c57600080fd5b50610265610afe565b6040516102729190611141565b60405180910390f35b34801561028757600080fd5b50610290610b04565b60405161029d9190611141565b60405180910390f35b3480156102b257600080fd5b506102bb610b0a565b6040516102c89190611141565b60405180910390f35b3480156102dd57600080fd5b506102f860048036038101906102f39190610e6d565b610b10565b60405161030b9796959493929190611017565b60405180910390f35b34801561032057600080fd5b5061033b60048036038101906103369190610de0565b610b9f565b6040516103489190611141565b60405180910390f35b34801561035d57600080fd5b50610366610d2a565b6040516103739190610fc5565b60405180910390f35b610384610d50565b005b34801561039257600080fd5b5061039b610d9b565b6040516103a89190611141565b60405180910390f35b60016003600083815260200190815260200160002060020160009054906101000a900460ff1660ff16141561043a574260036000838152602001908152602001600020600501541015610439576040517f08c379a0000000000000000000000000000000000000000000000000000000008152600401610430906110e1565b60405180910390fd5b5b6003600082815260200190815260200160002060060160009054906101000a900473ffffffffffffffffffffffffffffffffffffffff1673ffffffffffffffffffffffffffffffffffffffff166108fc60036000848152602001908152602001600020600301549081150290604051600060405180830381858888f193505050501580156104cc573d6000803e3d6000fd5b506003600082815260200190815260200160002060000160009054906101000a900473ffffffffffffffffffffffffffffffffffffffff1673ffffffffffffffffffffffffffffffffffffffff166323b872dd6003600084815260200190815260200160002060060160009054906101000a900473ffffffffffffffffffffffffffffffffffffffff163360036000868152602001908152602001600020600101546040518463ffffffff1660e01b815260040161058c93929190610fe0565b600060405180830381600087803b1580156105a657600080fd5b505af11580156105ba573d6000803e3d6000fd5b5050505050565b60085481565b600560009054906101000a900473ffffffffffffffffffffffffffffffffffffffff1673ffffffffffffffffffffffffffffffffffffffff163373ffffffffffffffffffffffffffffffffffffffff161415610658576040517f08c379a000000000000000000000000000000000000000000000000000000000815260040161064f90611101565b60405180910390fd5b60016003600084815260200190815260200160002060020160009054906101000a900460ff1660ff16146106c1576040517f08c379a00000000000000000000000000000000000000000000000000000000081526004016106b8906110a1565b60405180910390fd5b60036000838152602001908152602001600020600301548111610719576040517f08c379a000000000000000000000000000000000000000000000000000000000815260040161071090611121565b60405180910390fd5b8060036000848152602001908152602001600020600301819055505050565b600560009054906101000a900473ffffffffffffffffffffffffffffffffffffffff1681565b60065481565b60045481565b60008054906101000a900460ff1681565b600560009054906101000a900473ffffffffffffffffffffffffffffffffffffffff1673ffffffffffffffffffffffffffffffffffffffff163373ffffffffffffffffffffffffffffffffffffffff161461080b576040517f08c379a0000000000000000000000000000000000000000000000000000000008152600401610802906110c1565b60405180910390fd5b60016003600083815260200190815260200160002060020160009054906101000a900460ff1660ff1614610874576040517f08c379a000000000000000000000000000000000000000000000000000000000815260040161086b906110a1565b60405180910390fd5b60016000806101000a81548160ff02191690836003811115610899576108986112dd565b5b021790555042600681905550600a546006546108b5919061116d565b6007819055506003600082815260200190815260200160002060060160009054906101000a900473ffffffffffffffffffffffffffffffffffffffff1673ffffffffffffffffffffffffffffffffffffffff166108fc60036000848152602001908152602001600020600301549081150290604051600060405180830381858888f1935050505015801561094d573d6000803e3d6000fd5b506003600082815260200190815260200160002060000160009054906101000a900473ffffffffffffffffffffffffffffffffffffffff1673ffffffffffffffffffffffffffffffffffffffff166323b872dd6003600084815260200190815260200160002060060160009054906101000a900473ffffffffffffffffffffffffffffffffffffffff163360036000868152602001908152602001600020600101546040518463ffffffff1660e01b8152600401610a0d93929190610fe0565b600060405180830381600087803b158015610a2757600080fd5b505af1158015610a3b573d6000803e3d6000fd5b5050505050565b600560009054906101000a900473ffffffffffffffffffffffffffffffffffffffff1673ffffffffffffffffffffffffffffffffffffffff163373ffffffffffffffffffffffffffffffffffffffff1614610ad2576040517f08c379a0000000000000000000000000000000000000000000000000000000008152600401610ac9906110c1565b60405180910390fd5b60036000806101000a81548160ff02191690836003811115610af757610af66112dd565b5b0217905550565b600a5481565b600b5481565b600c5481565b60036020528060005260406000206000915090508060000160009054906101000a900473ffffffffffffffffffffffffffffffffffffffff16908060010154908060020160009054906101000a900460ff16908060030154908060040154908060050154908060060160009054906101000a900473ffffffffffffffffffffffffffffffffffffffff16905087565b6000806040518060e001604052808973ffffffffffffffffffffffffffffffffffffffff1681526020018881526020018760ff1681526020018681526020018581526020018481526020013373ffffffffffffffffffffffffffffffffffffffff1681525090508060036000600454815260200190815260200160002060008201518160000160006101000a81548173ffffffffffffffffffffffffffffffffffffffff021916908373ffffffffffffffffffffffffffffffffffffffff1602179055506020820151816001015560408201518160020160006101000a81548160ff021916908360ff160217905550606082015181600301556080820151816004015560a0820151816005015560c08201518160060160006101000a81548173ffffffffffffffffffffffffffffffffffffffff021916908373ffffffffffffffffffffffffffffffffffffffff16021790555090505060046000815480929190610d0990611265565b91905055506001600454610d1d91906111c3565b9150509695505050505050565b600960009054906101000a900473ffffffffffffffffffffffffffffffffffffffff1681565b600380811115610d6357610d626112dd565b5b60008054906101000a900460ff166003811115610d8357610d826112dd565b5b1480610d90575060075442115b610d9957600080fd5b565b60075481565b600081359050610db081611464565b92915050565b600081359050610dc58161147b565b92915050565b600081359050610dda81611492565b92915050565b60008060008060008060c08789031215610dfd57610dfc61130c565b5b6000610e0b89828a01610da1565b9650506020610e1c89828a01610db6565b9550506040610e2d89828a01610dcb565b9450506060610e3e89828a01610db6565b9350506080610e4f89828a01610db6565b92505060a0610e6089828a01610db6565b9150509295509295509295565b600060208284031215610e8357610e8261130c565b5b6000610e9184828501610db6565b91505092915050565b60008060408385031215610eb157610eb061130c565b5b6000610ebf85828601610db6565b9250506020610ed085828601610db6565b9150509250929050565b610ee3816111f7565b82525050565b610ef281611253565b82525050565b6000610f0560168361115c565b9150610f1082611311565b602082019050919050565b6000610f2860328361115c565b9150610f338261133a565b604082019050919050565b6000610f4b60128361115c565b9150610f5682611389565b602082019050919050565b6000610f6e60338361115c565b9150610f79826113b2565b604082019050919050565b6000610f9160228361115c565b9150610f9c82611401565b604082019050919050565b610fb08161123c565b82525050565b610fbf81611246565b82525050565b6000602082019050610fda6000830184610eda565b92915050565b6000606082019050610ff56000830186610eda565b6110026020830185610eda565b61100f6040830184610fa7565b949350505050565b600060e08201905061102c600083018a610eda565b6110396020830189610fa7565b6110466040830188610fb6565b6110536060830187610fa7565b6110606080830186610fa7565b61106d60a0830185610fa7565b61107a60c0830184610eda565b98975050505050505050565b600060208201905061109b6000830184610ee9565b92915050565b600060208201905081810360008301526110ba81610ef8565b9050919050565b600060208201905081810360008301526110da81610f1b565b9050919050565b600060208201905081810360008301526110fa81610f3e565b9050919050565b6000602082019050818103600083015261111a81610f61565b9050919050565b6000602082019050818103600083015261113a81610f84565b9050919050565b60006020820190506111566000830184610fa7565b92915050565b600082825260208201905092915050565b60006111788261123c565b91506111838361123c565b9250827fffffffffffffffffffffffffffffffffffffffffffffffffffffffffffffffff038211156111b8576111b76112ae565b5b828201905092915050565b60006111ce8261123c565b91506111d98361123c565b9250828210156111ec576111eb6112ae565b5b828203905092915050565b60006112028261121c565b9050919050565b600081905061121782611450565b919050565b600073ffffffffffffffffffffffffffffffffffffffff82169050919050565b6000819050919050565b600060ff82169050919050565b600061125e82611209565b9050919050565b60006112708261123c565b91507fffffffffffffffffffffffffffffffffffffffffffffffffffffffffffffffff8214156112a3576112a26112ae565b5b600182019050919050565b7f4e487b7100000000000000000000000000000000000000000000000000000000600052601160045260246000fd5b7f4e487b7100000000000000000000000000000000000000000000000000000000600052602160045260246000fd5b600080fd5b7f4e6f7420616e2061756374696f6e206c697374696e6700000000000000000000600082015250565b7f4f776e65722063616e6e6f742062696420616e64206f6e6c79206f776e65722060008201527f68617320616363657373206f6620746869730000000000000000000000000000602082015250565b7f61756374696f6e2074696d6520656e6465640000000000000000000000000000600082015250565b7f4f776e65722063616e6e6f742062696420616e64206f6e6c79206f776e65722060008201527f63616e20657865637574652061756374696f6e00000000000000000000000000602082015250565b7f62696420616d6f756e74206c657373207468616e206c697374696e672070726960008201527f6365000000000000000000000000000000000000000000000000000000000000602082015250565b60048110611461576114606112dd565b5b50565b61146d816111f7565b811461147857600080fd5b50565b6114848161123c565b811461148f57600080fd5b50565b61149b81611246565b81146114a657600080fd5b5056fea26469706673582212203a9fa69dd06988929a902d896ae70b1a7821a4ac9decdd7f8d4aab27af182ec364736f6c63430008070033",
					"opcodes": "PUSH1 0x80 PUSH1 0x40 MSTORE PUSH1 0x2 PUSH1 0x0 DUP1 PUSH2 0x100 EXP DUP2 SLOAD DUP2 PUSH1 0xFF MUL NOT AND SWAP1 DUP4 PUSH1 0x3 DUP2 GT ISZERO PUSH2 0x29 JUMPI PUSH2 0x28 PUSH2 0x6D JUMP JUMPDEST JUMPDEST MUL OR SWAP1 SSTORE POP PUSH2 0x2710 PUSH1 0x1 SSTORE PUSH3 0xF4240 PUSH1 0x2 SSTORE PUSH1 0x0 PUSH1 0x4 SSTORE PUSH1 0x0 PUSH1 0x9 PUSH1 0x14 PUSH2 0x100 EXP DUP2 SLOAD DUP2 PUSH1 0xFF MUL NOT AND SWAP1 DUP4 ISZERO ISZERO MUL OR SWAP1 SSTORE POP CALLVALUE DUP1 ISZERO PUSH2 0x67 JUMPI PUSH1 0x0 DUP1 REVERT JUMPDEST POP PUSH2 0x9C JUMP JUMPDEST PUSH32 0x4E487B7100000000000000000000000000000000000000000000000000000000 PUSH1 0x0 MSTORE PUSH1 0x21 PUSH1 0x4 MSTORE PUSH1 0x24 PUSH1 0x0 REVERT JUMPDEST PUSH2 0x14DF DUP1 PUSH2 0xAB PUSH1 0x0 CODECOPY PUSH1 0x0 RETURN INVALID PUSH1 0x80 PUSH1 0x40 MSTORE PUSH1 0x4 CALLDATASIZE LT PUSH2 0x102 JUMPI PUSH1 0x0 CALLDATALOAD PUSH1 0xE0 SHR DUP1 PUSH4 0x8FA8B790 GT PUSH2 0x95 JUMPI DUP1 PUSH4 0xDE74E57B GT PUSH2 0x64 JUMPI DUP1 PUSH4 0xDE74E57B EQ PUSH2 0x2D1 JUMPI DUP1 PUSH4 0xEB2AA7C6 EQ PUSH2 0x314 JUMPI DUP1 PUSH4 0xF496D882 EQ PUSH2 0x351 JUMPI DUP1 PUSH4 0xF77282AB EQ PUSH2 0x37C JUMPI DUP1 PUSH4 0xFE67A54B EQ PUSH2 0x386 JUMPI PUSH2 0x109 JUMP JUMPDEST DUP1 PUSH4 0x8FA8B790 EQ PUSH2 0x239 JUMPI DUP1 PUSH4 0xA271E525 EQ PUSH2 0x250 JUMPI DUP1 PUSH4 0xAD9F20A6 EQ PUSH2 0x27B JUMPI DUP1 PUSH4 0xCE69CD20 EQ PUSH2 0x2A6 JUMPI PUSH2 0x109 JUMP JUMPDEST DUP1 PUSH4 0x6B64C769 GT PUSH2 0xD1 JUMPI DUP1 PUSH4 0x6B64C769 EQ PUSH2 0x19C JUMPI DUP1 PUSH4 0x6C2C9C7D EQ PUSH2 0x1C7 JUMPI DUP1 PUSH4 0x7FB45099 EQ PUSH2 0x1F2 JUMPI DUP1 PUSH4 0x7FD855EE EQ PUSH2 0x21D JUMPI PUSH2 0x109 JUMP JUMPDEST DUP1 PUSH4 0x110D35B8 EQ PUSH2 0x10E JUMPI DUP1 PUSH4 0x19AFE473 EQ PUSH2 0x12A JUMPI DUP1 PUSH4 0x57C90DE5 EQ PUSH2 0x155 JUMPI DUP1 PUSH4 0x5EC2C7BF EQ PUSH2 0x171 JUMPI PUSH2 0x109 JUMP JUMPDEST CALLDATASIZE PUSH2 0x109 JUMPI STOP JUMPDEST PUSH1 0x0 DUP1 REVERT JUMPDEST PUSH2 0x128 PUSH1 0x4 DUP1 CALLDATASIZE SUB DUP2 ADD SWAP1 PUSH2 0x123 SWAP2 SWAP1 PUSH2 0xE6D JUMP JUMPDEST PUSH2 0x3B1 JUMP JUMPDEST STOP JUMPDEST CALLVALUE DUP1 ISZERO PUSH2 0x136 JUMPI PUSH1 0x0 DUP1 REVERT JUMPDEST POP PUSH2 0x13F PUSH2 0x5C1 JUMP JUMPDEST PUSH1 0x40 MLOAD PUSH2 0x14C SWAP2 SWAP1 PUSH2 0x1141 JUMP JUMPDEST PUSH1 0x40 MLOAD DUP1 SWAP2 SUB SWAP1 RETURN JUMPDEST PUSH2 0x16F PUSH1 0x4 DUP1 CALLDATASIZE SUB DUP2 ADD SWAP1 PUSH2 0x16A SWAP2 SWAP1 PUSH2 0xE9A JUMP JUMPDEST PUSH2 0x5C7 JUMP JUMPDEST STOP JUMPDEST CALLVALUE DUP1 ISZERO PUSH2 0x17D JUMPI PUSH1 0x0 DUP1 REVERT JUMPDEST POP PUSH2 0x186 PUSH2 0x738 JUMP JUMPDEST PUSH1 0x40 MLOAD PUSH2 0x193 SWAP2 SWAP1 PUSH2 0xFC5 JUMP JUMPDEST PUSH1 0x40 MLOAD DUP1 SWAP2 SUB SWAP1 RETURN JUMPDEST CALLVALUE DUP1 ISZERO PUSH2 0x1A8 JUMPI PUSH1 0x0 DUP1 REVERT JUMPDEST POP PUSH2 0x1B1 PUSH2 0x75E JUMP JUMPDEST PUSH1 0x40 MLOAD PUSH2 0x1BE SWAP2 SWAP1 PUSH2 0x1141 JUMP JUMPDEST PUSH1 0x40 MLOAD DUP1 SWAP2 SUB SWAP1 RETURN JUMPDEST CALLVALUE DUP1 ISZERO PUSH2 0x1D3 JUMPI PUSH1 0x0 DUP1 REVERT JUMPDEST POP PUSH2 0x1DC PUSH2 0x764 JUMP JUMPDEST PUSH1 0x40 MLOAD PUSH2 0x1E9 SWAP2 SWAP1 PUSH2 0x1141 JUMP JUMPDEST PUSH1 0x40 MLOAD DUP1 SWAP2 SUB SWAP1 RETURN JUMPDEST CALLVALUE DUP1 ISZERO PUSH2 0x1FE JUMPI PUSH1 0x0 DUP1 REVERT JUMPDEST POP PUSH2 0x207 PUSH2 0x76A JUMP JUMPDEST PUSH1 0x40 MLOAD PUSH2 0x214 SWAP2 SWAP1 PUSH2 0x1086 JUMP JUMPDEST PUSH1 0x40 MLOAD DUP1 SWAP2 SUB SWAP1 RETURN JUMPDEST PUSH2 0x237 PUSH1 0x4 DUP1 CALLDATASIZE SUB DUP2 ADD SWAP1 PUSH2 0x232 SWAP2 SWAP1 PUSH2 0xE6D JUMP JUMPDEST PUSH2 0x77B JUMP JUMPDEST STOP JUMPDEST CALLVALUE DUP1 ISZERO PUSH2 0x245 JUMPI PUSH1 0x0 DUP1 REVERT JUMPDEST POP PUSH2 0x24E PUSH2 0xA42 JUMP JUMPDEST STOP JUMPDEST CALLVALUE DUP1 ISZERO PUSH2 0x25C JUMPI PUSH1 0x0 DUP1 REVERT JUMPDEST POP PUSH2 0x265 PUSH2 0xAFE JUMP JUMPDEST PUSH1 0x40 MLOAD PUSH2 0x272 SWAP2 SWAP1 PUSH2 0x1141 JUMP JUMPDEST PUSH1 0x40 MLOAD DUP1 SWAP2 SUB SWAP1 RETURN JUMPDEST CALLVALUE DUP1 ISZERO PUSH2 0x287 JUMPI PUSH1 0x0 DUP1 REVERT JUMPDEST POP PUSH2 0x290 PUSH2 0xB04 JUMP JUMPDEST PUSH1 0x40 MLOAD PUSH2 0x29D SWAP2 SWAP1 PUSH2 0x1141 JUMP JUMPDEST PUSH1 0x40 MLOAD DUP1 SWAP2 SUB SWAP1 RETURN JUMPDEST CALLVALUE DUP1 ISZERO PUSH2 0x2B2 JUMPI PUSH1 0x0 DUP1 REVERT JUMPDEST POP PUSH2 0x2BB PUSH2 0xB0A JUMP JUMPDEST PUSH1 0x40 MLOAD PUSH2 0x2C8 SWAP2 SWAP1 PUSH2 0x1141 JUMP JUMPDEST PUSH1 0x40 MLOAD DUP1 SWAP2 SUB SWAP1 RETURN JUMPDEST CALLVALUE DUP1 ISZERO PUSH2 0x2DD JUMPI PUSH1 0x0 DUP1 REVERT JUMPDEST POP PUSH2 0x2F8 PUSH1 0x4 DUP1 CALLDATASIZE SUB DUP2 ADD SWAP1 PUSH2 0x2F3 SWAP2 SWAP1 PUSH2 0xE6D JUMP JUMPDEST PUSH2 0xB10 JUMP JUMPDEST PUSH1 0x40 MLOAD PUSH2 0x30B SWAP8 SWAP7 SWAP6 SWAP5 SWAP4 SWAP3 SWAP2 SWAP1 PUSH2 0x1017 JUMP JUMPDEST PUSH1 0x40 MLOAD DUP1 SWAP2 SUB SWAP1 RETURN JUMPDEST CALLVALUE DUP1 ISZERO PUSH2 0x320 JUMPI PUSH1 0x0 DUP1 REVERT JUMPDEST POP PUSH2 0x33B PUSH1 0x4 DUP1 CALLDATASIZE SUB DUP2 ADD SWAP1 PUSH2 0x336 SWAP2 SWAP1 PUSH2 0xDE0 JUMP JUMPDEST PUSH2 0xB9F JUMP JUMPDEST PUSH1 0x40 MLOAD PUSH2 0x348 SWAP2 SWAP1 PUSH2 0x1141 JUMP JUMPDEST PUSH1 0x40 MLOAD DUP1 SWAP2 SUB SWAP1 RETURN JUMPDEST CALLVALUE DUP1 ISZERO PUSH2 0x35D JUMPI PUSH1 0x0 DUP1 REVERT JUMPDEST POP PUSH2 0x366 PUSH2 0xD2A JUMP JUMPDEST PUSH1 0x40 MLOAD PUSH2 0x373 SWAP2 SWAP1 PUSH2 0xFC5 JUMP JUMPDEST PUSH1 0x40 MLOAD DUP1 SWAP2 SUB SWAP1 RETURN JUMPDEST PUSH2 0x384 PUSH2 0xD50 JUMP JUMPDEST STOP JUMPDEST CALLVALUE DUP1 ISZERO PUSH2 0x392 JUMPI PUSH1 0x0 DUP1 REVERT JUMPDEST POP PUSH2 0x39B PUSH2 0xD9B JUMP JUMPDEST PUSH1 0x40 MLOAD PUSH2 0x3A8 SWAP2 SWAP1 PUSH2 0x1141 JUMP JUMPDEST PUSH1 0x40 MLOAD DUP1 SWAP2 SUB SWAP1 RETURN JUMPDEST PUSH1 0x1 PUSH1 0x3 PUSH1 0x0 DUP4 DUP2 MSTORE PUSH1 0x20 ADD SWAP1 DUP2 MSTORE PUSH1 0x20 ADD PUSH1 0x0 KECCAK256 PUSH1 0x2 ADD PUSH1 0x0 SWAP1 SLOAD SWAP1 PUSH2 0x100 EXP SWAP1 DIV PUSH1 0xFF AND PUSH1 0xFF AND EQ ISZERO PUSH2 0x43A JUMPI TIMESTAMP PUSH1 0x3 PUSH1 0x0 DUP4 DUP2 MSTORE PUSH1 0x20 ADD SWAP1 DUP2 MSTORE PUSH1 0x20 ADD PUSH1 0x0 KECCAK256 PUSH1 0x5 ADD SLOAD LT ISZERO PUSH2 0x439 JUMPI PUSH1 0x40 MLOAD PUSH32 0x8C379A000000000000000000000000000000000000000000000000000000000 DUP2 MSTORE PUSH1 0x4 ADD PUSH2 0x430 SWAP1 PUSH2 0x10E1 JUMP JUMPDEST PUSH1 0x40 MLOAD DUP1 SWAP2 SUB SWAP1 REVERT JUMPDEST JUMPDEST PUSH1 0x3 PUSH1 0x0 DUP3 DUP2 MSTORE PUSH1 0x20 ADD SWAP1 DUP2 MSTORE PUSH1 0x20 ADD PUSH1 0x0 KECCAK256 PUSH1 0x6 ADD PUSH1 0x0 SWAP1 SLOAD SWAP1 PUSH2 0x100 EXP SWAP1 DIV PUSH20 0xFFFFFFFFFFFFFFFFFFFFFFFFFFFFFFFFFFFFFFFF AND PUSH20 0xFFFFFFFFFFFFFFFFFFFFFFFFFFFFFFFFFFFFFFFF AND PUSH2 0x8FC PUSH1 0x3 PUSH1 0x0 DUP5 DUP2 MSTORE PUSH1 0x20 ADD SWAP1 DUP2 MSTORE PUSH1 0x20 ADD PUSH1 0x0 KECCAK256 PUSH1 0x3 ADD SLOAD SWAP1 DUP2 ISZERO MUL SWAP1 PUSH1 0x40 MLOAD PUSH1 0x0 PUSH1 0x40 MLOAD DUP1 DUP4 SUB DUP2 DUP6 DUP9 DUP9 CALL SWAP4 POP POP POP POP ISZERO DUP1 ISZERO PUSH2 0x4CC JUMPI RETURNDATASIZE PUSH1 0x0 DUP1 RETURNDATACOPY RETURNDATASIZE PUSH1 0x0 REVERT JUMPDEST POP PUSH1 0x3 PUSH1 0x0 DUP3 DUP2 MSTORE PUSH1 0x20 ADD SWAP1 DUP2 MSTORE PUSH1 0x20 ADD PUSH1 0x0 KECCAK256 PUSH1 0x0 ADD PUSH1 0x0 SWAP1 SLOAD SWAP1 PUSH2 0x100 EXP SWAP1 DIV PUSH20 0xFFFFFFFFFFFFFFFFFFFFFFFFFFFFFFFFFFFFFFFF AND PUSH20 0xFFFFFFFFFFFFFFFFFFFFFFFFFFFFFFFFFFFFFFFF AND PUSH4 0x23B872DD PUSH1 0x3 PUSH1 0x0 DUP5 DUP2 MSTORE PUSH1 0x20 ADD SWAP1 DUP2 MSTORE PUSH1 0x20 ADD PUSH1 0x0 KECCAK256 PUSH1 0x6 ADD PUSH1 0x0 SWAP1 SLOAD SWAP1 PUSH2 0x100 EXP SWAP1 DIV PUSH20 0xFFFFFFFFFFFFFFFFFFFFFFFFFFFFFFFFFFFFFFFF AND CALLER PUSH1 0x3 PUSH1 0x0 DUP7 DUP2 MSTORE PUSH1 0x20 ADD SWAP1 DUP2 MSTORE PUSH1 0x20 ADD PUSH1 0x0 KECCAK256 PUSH1 0x1 ADD SLOAD PUSH1 0x40 MLOAD DUP5 PUSH4 0xFFFFFFFF AND PUSH1 0xE0 SHL DUP2 MSTORE PUSH1 0x4 ADD PUSH2 0x58C SWAP4 SWAP3 SWAP2 SWAP1 PUSH2 0xFE0 JUMP JUMPDEST PUSH1 0x0 PUSH1 0x40 MLOAD DUP1 DUP4 SUB DUP2 PUSH1 0x0 DUP8 DUP1 EXTCODESIZE ISZERO DUP1 ISZERO PUSH2 0x5A6 JUMPI PUSH1 0x0 DUP1 REVERT JUMPDEST POP GAS CALL ISZERO DUP1 ISZERO PUSH2 0x5BA JUMPI RETURNDATASIZE PUSH1 0x0 DUP1 RETURNDATACOPY RETURNDATASIZE PUSH1 0x0 REVERT JUMPDEST POP POP POP POP POP JUMP JUMPDEST PUSH1 0x8 SLOAD DUP2 JUMP JUMPDEST PUSH1 0x5 PUSH1 0x0 SWAP1 SLOAD SWAP1 PUSH2 0x100 EXP SWAP1 DIV PUSH20 0xFFFFFFFFFFFFFFFFFFFFFFFFFFFFFFFFFFFFFFFF AND PUSH20 0xFFFFFFFFFFFFFFFFFFFFFFFFFFFFFFFFFFFFFFFF AND CALLER PUSH20 0xFFFFFFFFFFFFFFFFFFFFFFFFFFFFFFFFFFFFFFFF AND EQ ISZERO PUSH2 0x658 JUMPI PUSH1 0x40 MLOAD PUSH32 0x8C379A000000000000000000000000000000000000000000000000000000000 DUP2 MSTORE PUSH1 0x4 ADD PUSH2 0x64F SWAP1 PUSH2 0x1101 JUMP JUMPDEST PUSH1 0x40 MLOAD DUP1 SWAP2 SUB SWAP1 REVERT JUMPDEST PUSH1 0x1 PUSH1 0x3 PUSH1 0x0 DUP5 DUP2 MSTORE PUSH1 0x20 ADD SWAP1 DUP2 MSTORE PUSH1 0x20 ADD PUSH1 0x0 KECCAK256 PUSH1 0x2 ADD PUSH1 0x0 SWAP1 SLOAD SWAP1 PUSH2 0x100 EXP SWAP1 DIV PUSH1 0xFF AND PUSH1 0xFF AND EQ PUSH2 0x6C1 JUMPI PUSH1 0x40 MLOAD PUSH32 0x8C379A000000000000000000000000000000000000000000000000000000000 DUP2 MSTORE PUSH1 0x4 ADD PUSH2 0x6B8 SWAP1 PUSH2 0x10A1 JUMP JUMPDEST PUSH1 0x40 MLOAD DUP1 SWAP2 SUB SWAP1 REVERT JUMPDEST PUSH1 0x3 PUSH1 0x0 DUP4 DUP2 MSTORE PUSH1 0x20 ADD SWAP1 DUP2 MSTORE PUSH1 0x20 ADD PUSH1 0x0 KECCAK256 PUSH1 0x3 ADD SLOAD DUP2 GT PUSH2 0x719 JUMPI PUSH1 0x40 MLOAD PUSH32 0x8C379A000000000000000000000000000000000000000000000000000000000 DUP2 MSTORE PUSH1 0x4 ADD PUSH2 0x710 SWAP1 PUSH2 0x1121 JUMP JUMPDEST PUSH1 0x40 MLOAD DUP1 SWAP2 SUB SWAP1 REVERT JUMPDEST DUP1 PUSH1 0x3 PUSH1 0x0 DUP5 DUP2 MSTORE PUSH1 0x20 ADD SWAP1 DUP2 MSTORE PUSH1 0x20 ADD PUSH1 0x0 KECCAK256 PUSH1 0x3 ADD DUP2 SWAP1 SSTORE POP POP POP JUMP JUMPDEST PUSH1 0x5 PUSH1 0x0 SWAP1 SLOAD SWAP1 PUSH2 0x100 EXP SWAP1 DIV PUSH20 0xFFFFFFFFFFFFFFFFFFFFFFFFFFFFFFFFFFFFFFFF AND DUP2 JUMP JUMPDEST PUSH1 0x6 SLOAD DUP2 JUMP JUMPDEST PUSH1 0x4 SLOAD DUP2 JUMP JUMPDEST PUSH1 0x0 DUP1 SLOAD SWAP1 PUSH2 0x100 EXP SWAP1 DIV PUSH1 0xFF AND DUP2 JUMP JUMPDEST PUSH1 0x5 PUSH1 0x0 SWAP1 SLOAD SWAP1 PUSH2 0x100 EXP SWAP1 DIV PUSH20 0xFFFFFFFFFFFFFFFFFFFFFFFFFFFFFFFFFFFFFFFF AND PUSH20 0xFFFFFFFFFFFFFFFFFFFFFFFFFFFFFFFFFFFFFFFF AND CALLER PUSH20 0xFFFFFFFFFFFFFFFFFFFFFFFFFFFFFFFFFFFFFFFF AND EQ PUSH2 0x80B JUMPI PUSH1 0x40 MLOAD PUSH32 0x8C379A000000000000000000000000000000000000000000000000000000000 DUP2 MSTORE PUSH1 0x4 ADD PUSH2 0x802 SWAP1 PUSH2 0x10C1 JUMP JUMPDEST PUSH1 0x40 MLOAD DUP1 SWAP2 SUB SWAP1 REVERT JUMPDEST PUSH1 0x1 PUSH1 0x3 PUSH1 0x0 DUP4 DUP2 MSTORE PUSH1 0x20 ADD SWAP1 DUP2 MSTORE PUSH1 0x20 ADD PUSH1 0x0 KECCAK256 PUSH1 0x2 ADD PUSH1 0x0 SWAP1 SLOAD SWAP1 PUSH2 0x100 EXP SWAP1 DIV PUSH1 0xFF AND PUSH1 0xFF AND EQ PUSH2 0x874 JUMPI PUSH1 0x40 MLOAD PUSH32 0x8C379A000000000000000000000000000000000000000000000000000000000 DUP2 MSTORE PUSH1 0x4 ADD PUSH2 0x86B SWAP1 PUSH2 0x10A1 JUMP JUMPDEST PUSH1 0x40 MLOAD DUP1 SWAP2 SUB SWAP1 REVERT JUMPDEST PUSH1 0x1 PUSH1 0x0 DUP1 PUSH2 0x100 EXP DUP2 SLOAD DUP2 PUSH1 0xFF MUL NOT AND SWAP1 DUP4 PUSH1 0x3 DUP2 GT ISZERO PUSH2 0x899 JUMPI PUSH2 0x898 PUSH2 0x12DD JUMP JUMPDEST JUMPDEST MUL OR SWAP1 SSTORE POP TIMESTAMP PUSH1 0x6 DUP2 SWAP1 SSTORE POP PUSH1 0xA SLOAD PUSH1 0x6 SLOAD PUSH2 0x8B5 SWAP2 SWAP1 PUSH2 0x116D JUMP JUMPDEST PUSH1 0x7 DUP2 SWAP1 SSTORE POP PUSH1 0x3 PUSH1 0x0 DUP3 DUP2 MSTORE PUSH1 0x20 ADD SWAP1 DUP2 MSTORE PUSH1 0x20 ADD PUSH1 0x0 KECCAK256 PUSH1 0x6 ADD PUSH1 0x0 SWAP1 SLOAD SWAP1 PUSH2 0x100 EXP SWAP1 DIV PUSH20 0xFFFFFFFFFFFFFFFFFFFFFFFFFFFFFFFFFFFFFFFF AND PUSH20 0xFFFFFFFFFFFFFFFFFFFFFFFFFFFFFFFFFFFFFFFF AND PUSH2 0x8FC PUSH1 0x3 PUSH1 0x0 DUP5 DUP2 MSTORE PUSH1 0x20 ADD SWAP1 DUP2 MSTORE PUSH1 0x20 ADD PUSH1 0x0 KECCAK256 PUSH1 0x3 ADD SLOAD SWAP1 DUP2 ISZERO MUL SWAP1 PUSH1 0x40 MLOAD PUSH1 0x0 PUSH1 0x40 MLOAD DUP1 DUP4 SUB DUP2 DUP6 DUP9 DUP9 CALL SWAP4 POP POP POP POP ISZERO DUP1 ISZERO PUSH2 0x94D JUMPI RETURNDATASIZE PUSH1 0x0 DUP1 RETURNDATACOPY RETURNDATASIZE PUSH1 0x0 REVERT JUMPDEST POP PUSH1 0x3 PUSH1 0x0 DUP3 DUP2 MSTORE PUSH1 0x20 ADD SWAP1 DUP2 MSTORE PUSH1 0x20 ADD PUSH1 0x0 KECCAK256 PUSH1 0x0 ADD PUSH1 0x0 SWAP1 SLOAD SWAP1 PUSH2 0x100 EXP SWAP1 DIV PUSH20 0xFFFFFFFFFFFFFFFFFFFFFFFFFFFFFFFFFFFFFFFF AND PUSH20 0xFFFFFFFFFFFFFFFFFFFFFFFFFFFFFFFFFFFFFFFF AND PUSH4 0x23B872DD PUSH1 0x3 PUSH1 0x0 DUP5 DUP2 MSTORE PUSH1 0x20 ADD SWAP1 DUP2 MSTORE PUSH1 0x20 ADD PUSH1 0x0 KECCAK256 PUSH1 0x6 ADD PUSH1 0x0 SWAP1 SLOAD SWAP1 PUSH2 0x100 EXP SWAP1 DIV PUSH20 0xFFFFFFFFFFFFFFFFFFFFFFFFFFFFFFFFFFFFFFFF AND CALLER PUSH1 0x3 PUSH1 0x0 DUP7 DUP2 MSTORE PUSH1 0x20 ADD SWAP1 DUP2 MSTORE PUSH1 0x20 ADD PUSH1 0x0 KECCAK256 PUSH1 0x1 ADD SLOAD PUSH1 0x40 MLOAD DUP5 PUSH4 0xFFFFFFFF AND PUSH1 0xE0 SHL DUP2 MSTORE PUSH1 0x4 ADD PUSH2 0xA0D SWAP4 SWAP3 SWAP2 SWAP1 PUSH2 0xFE0 JUMP JUMPDEST PUSH1 0x0 PUSH1 0x40 MLOAD DUP1 DUP4 SUB DUP2 PUSH1 0x0 DUP8 DUP1 EXTCODESIZE ISZERO DUP1 ISZERO PUSH2 0xA27 JUMPI PUSH1 0x0 DUP1 REVERT JUMPDEST POP GAS CALL ISZERO DUP1 ISZERO PUSH2 0xA3B JUMPI RETURNDATASIZE PUSH1 0x0 DUP1 RETURNDATACOPY RETURNDATASIZE PUSH1 0x0 REVERT JUMPDEST POP POP POP POP POP JUMP JUMPDEST PUSH1 0x5 PUSH1 0x0 SWAP1 SLOAD SWAP1 PUSH2 0x100 EXP SWAP1 DIV PUSH20 0xFFFFFFFFFFFFFFFFFFFFFFFFFFFFFFFFFFFFFFFF AND PUSH20 0xFFFFFFFFFFFFFFFFFFFFFFFFFFFFFFFFFFFFFFFF AND CALLER PUSH20 0xFFFFFFFFFFFFFFFFFFFFFFFFFFFFFFFFFFFFFFFF AND EQ PUSH2 0xAD2 JUMPI PUSH1 0x40 MLOAD PUSH32 0x8C379A000000000000000000000000000000000000000000000000000000000 DUP2 MSTORE PUSH1 0x4 ADD PUSH2 0xAC9 SWAP1 PUSH2 0x10C1 JUMP JUMPDEST PUSH1 0x40 MLOAD DUP1 SWAP2 SUB SWAP1 REVERT JUMPDEST PUSH1 0x3 PUSH1 0x0 DUP1 PUSH2 0x100 EXP DUP2 SLOAD DUP2 PUSH1 0xFF MUL NOT AND SWAP1 DUP4 PUSH1 0x3 DUP2 GT ISZERO PUSH2 0xAF7 JUMPI PUSH2 0xAF6 PUSH2 0x12DD JUMP JUMPDEST JUMPDEST MUL OR SWAP1 SSTORE POP JUMP JUMPDEST PUSH1 0xA SLOAD DUP2 JUMP JUMPDEST PUSH1 0xB SLOAD DUP2 JUMP JUMPDEST PUSH1 0xC SLOAD DUP2 JUMP JUMPDEST PUSH1 0x3 PUSH1 0x20 MSTORE DUP1 PUSH1 0x0 MSTORE PUSH1 0x40 PUSH1 0x0 KECCAK256 PUSH1 0x0 SWAP2 POP SWAP1 POP DUP1 PUSH1 0x0 ADD PUSH1 0x0 SWAP1 SLOAD SWAP1 PUSH2 0x100 EXP SWAP1 DIV PUSH20 0xFFFFFFFFFFFFFFFFFFFFFFFFFFFFFFFFFFFFFFFF AND SWAP1 DUP1 PUSH1 0x1 ADD SLOAD SWAP1 DUP1 PUSH1 0x2 ADD PUSH1 0x0 SWAP1 SLOAD SWAP1 PUSH2 0x100 EXP SWAP1 DIV PUSH1 0xFF AND SWAP1 DUP1 PUSH1 0x3 ADD SLOAD SWAP1 DUP1 PUSH1 0x4 ADD SLOAD SWAP1 DUP1 PUSH1 0x5 ADD SLOAD SWAP1 DUP1 PUSH1 0x6 ADD PUSH1 0x0 SWAP1 SLOAD SWAP1 PUSH2 0x100 EXP SWAP1 DIV PUSH20 0xFFFFFFFFFFFFFFFFFFFFFFFFFFFFFFFFFFFFFFFF AND SWAP1 POP DUP8 JUMP JUMPDEST PUSH1 0x0 DUP1 PUSH1 0x40 MLOAD DUP1 PUSH1 0xE0 ADD PUSH1 0x40 MSTORE DUP1 DUP10 PUSH20 0xFFFFFFFFFFFFFFFFFFFFFFFFFFFFFFFFFFFFFFFF AND DUP2 MSTORE PUSH1 0x20 ADD DUP9 DUP2 MSTORE PUSH1 0x20 ADD DUP8 PUSH1 0xFF AND DUP2 MSTORE PUSH1 0x20 ADD DUP7 DUP2 MSTORE PUSH1 0x20 ADD DUP6 DUP2 MSTORE PUSH1 0x20 ADD DUP5 DUP2 MSTORE PUSH1 0x20 ADD CALLER PUSH20 0xFFFFFFFFFFFFFFFFFFFFFFFFFFFFFFFFFFFFFFFF AND DUP2 MSTORE POP SWAP1 POP DUP1 PUSH1 0x3 PUSH1 0x0 PUSH1 0x4 SLOAD DUP2 MSTORE PUSH1 0x20 ADD SWAP1 DUP2 MSTORE PUSH1 0x20 ADD PUSH1 0x0 KECCAK256 PUSH1 0x0 DUP3 ADD MLOAD DUP2 PUSH1 0x0 ADD PUSH1 0x0 PUSH2 0x100 EXP DUP2 SLOAD DUP2 PUSH20 0xFFFFFFFFFFFFFFFFFFFFFFFFFFFFFFFFFFFFFFFF MUL NOT AND SWAP1 DUP4 PUSH20 0xFFFFFFFFFFFFFFFFFFFFFFFFFFFFFFFFFFFFFFFF AND MUL OR SWAP1 SSTORE POP PUSH1 0x20 DUP3 ADD MLOAD DUP2 PUSH1 0x1 ADD SSTORE PUSH1 0x40 DUP3 ADD MLOAD DUP2 PUSH1 0x2 ADD PUSH1 0x0 PUSH2 0x100 EXP DUP2 SLOAD DUP2 PUSH1 0xFF MUL NOT AND SWAP1 DUP4 PUSH1 0xFF AND MUL OR SWAP1 SSTORE POP PUSH1 0x60 DUP3 ADD MLOAD DUP2 PUSH1 0x3 ADD SSTORE PUSH1 0x80 DUP3 ADD MLOAD DUP2 PUSH1 0x4 ADD SSTORE PUSH1 0xA0 DUP3 ADD MLOAD DUP2 PUSH1 0x5 ADD SSTORE PUSH1 0xC0 DUP3 ADD MLOAD DUP2 PUSH1 0x6 ADD PUSH1 0x0 PUSH2 0x100 EXP DUP2 SLOAD DUP2 PUSH20 0xFFFFFFFFFFFFFFFFFFFFFFFFFFFFFFFFFFFFFFFF MUL NOT AND SWAP1 DUP4 PUSH20 0xFFFFFFFFFFFFFFFFFFFFFFFFFFFFFFFFFFFFFFFF AND MUL OR SWAP1 SSTORE POP SWAP1 POP POP PUSH1 0x4 PUSH1 0x0 DUP2 SLOAD DUP1 SWAP3 SWAP2 SWAP1 PUSH2 0xD09 SWAP1 PUSH2 0x1265 JUMP JUMPDEST SWAP2 SWAP1 POP SSTORE POP PUSH1 0x1 PUSH1 0x4 SLOAD PUSH2 0xD1D SWAP2 SWAP1 PUSH2 0x11C3 JUMP JUMPDEST SWAP2 POP POP SWAP7 SWAP6 POP POP POP POP POP POP JUMP JUMPDEST PUSH1 0x9 PUSH1 0x0 SWAP1 SLOAD SWAP1 PUSH2 0x100 EXP SWAP1 DIV PUSH20 0xFFFFFFFFFFFFFFFFFFFFFFFFFFFFFFFFFFFFFFFF AND DUP2 JUMP JUMPDEST PUSH1 0x3 DUP1 DUP2 GT ISZERO PUSH2 0xD63 JUMPI PUSH2 0xD62 PUSH2 0x12DD JUMP JUMPDEST JUMPDEST PUSH1 0x0 DUP1 SLOAD SWAP1 PUSH2 0x100 EXP SWAP1 DIV PUSH1 0xFF AND PUSH1 0x3 DUP2 GT ISZERO PUSH2 0xD83 JUMPI PUSH2 0xD82 PUSH2 0x12DD JUMP JUMPDEST JUMPDEST EQ DUP1 PUSH2 0xD90 JUMPI POP PUSH1 0x7 SLOAD TIMESTAMP GT JUMPDEST PUSH2 0xD99 JUMPI PUSH1 0x0 DUP1 REVERT JUMPDEST JUMP JUMPDEST PUSH1 0x7 SLOAD DUP2 JUMP JUMPDEST PUSH1 0x0 DUP2 CALLDATALOAD SWAP1 POP PUSH2 0xDB0 DUP2 PUSH2 0x1464 JUMP JUMPDEST SWAP3 SWAP2 POP POP JUMP JUMPDEST PUSH1 0x0 DUP2 CALLDATALOAD SWAP1 POP PUSH2 0xDC5 DUP2 PUSH2 0x147B JUMP JUMPDEST SWAP3 SWAP2 POP POP JUMP JUMPDEST PUSH1 0x0 DUP2 CALLDATALOAD SWAP1 POP PUSH2 0xDDA DUP2 PUSH2 0x1492 JUMP JUMPDEST SWAP3 SWAP2 POP POP JUMP JUMPDEST PUSH1 0x0 DUP1 PUSH1 0x0 DUP1 PUSH1 0x0 DUP1 PUSH1 0xC0 DUP8 DUP10 SUB SLT ISZERO PUSH2 0xDFD JUMPI PUSH2 0xDFC PUSH2 0x130C JUMP JUMPDEST JUMPDEST PUSH1 0x0 PUSH2 0xE0B DUP10 DUP3 DUP11 ADD PUSH2 0xDA1 JUMP JUMPDEST SWAP7 POP POP PUSH1 0x20 PUSH2 0xE1C DUP10 DUP3 DUP11 ADD PUSH2 0xDB6 JUMP JUMPDEST SWAP6 POP POP PUSH1 0x40 PUSH2 0xE2D DUP10 DUP3 DUP11 ADD PUSH2 0xDCB JUMP JUMPDEST SWAP5 POP POP PUSH1 0x60 PUSH2 0xE3E DUP10 DUP3 DUP11 ADD PUSH2 0xDB6 JUMP JUMPDEST SWAP4 POP POP PUSH1 0x80 PUSH2 0xE4F DUP10 DUP3 DUP11 ADD PUSH2 0xDB6 JUMP JUMPDEST SWAP3 POP POP PUSH1 0xA0 PUSH2 0xE60 DUP10 DUP3 DUP11 ADD PUSH2 0xDB6 JUMP JUMPDEST SWAP2 POP POP SWAP3 SWAP6 POP SWAP3 SWAP6 POP SWAP3 SWAP6 JUMP JUMPDEST PUSH1 0x0 PUSH1 0x20 DUP3 DUP5 SUB SLT ISZERO PUSH2 0xE83 JUMPI PUSH2 0xE82 PUSH2 0x130C JUMP JUMPDEST JUMPDEST PUSH1 0x0 PUSH2 0xE91 DUP5 DUP3 DUP6 ADD PUSH2 0xDB6 JUMP JUMPDEST SWAP2 POP POP SWAP3 SWAP2 POP POP JUMP JUMPDEST PUSH1 0x0 DUP1 PUSH1 0x40 DUP4 DUP6 SUB SLT ISZERO PUSH2 0xEB1 JUMPI PUSH2 0xEB0 PUSH2 0x130C JUMP JUMPDEST JUMPDEST PUSH1 0x0 PUSH2 0xEBF DUP6 DUP3 DUP7 ADD PUSH2 0xDB6 JUMP JUMPDEST SWAP3 POP POP PUSH1 0x20 PUSH2 0xED0 DUP6 DUP3 DUP7 ADD PUSH2 0xDB6 JUMP JUMPDEST SWAP2 POP POP SWAP3 POP SWAP3 SWAP1 POP JUMP JUMPDEST PUSH2 0xEE3 DUP2 PUSH2 0x11F7 JUMP JUMPDEST DUP3 MSTORE POP POP JUMP JUMPDEST PUSH2 0xEF2 DUP2 PUSH2 0x1253 JUMP JUMPDEST DUP3 MSTORE POP POP JUMP JUMPDEST PUSH1 0x0 PUSH2 0xF05 PUSH1 0x16 DUP4 PUSH2 0x115C JUMP JUMPDEST SWAP2 POP PUSH2 0xF10 DUP3 PUSH2 0x1311 JUMP JUMPDEST PUSH1 0x20 DUP3 ADD SWAP1 POP SWAP2 SWAP1 POP JUMP JUMPDEST PUSH1 0x0 PUSH2 0xF28 PUSH1 0x32 DUP4 PUSH2 0x115C JUMP JUMPDEST SWAP2 POP PUSH2 0xF33 DUP3 PUSH2 0x133A JUMP JUMPDEST PUSH1 0x40 DUP3 ADD SWAP1 POP SWAP2 SWAP1 POP JUMP JUMPDEST PUSH1 0x0 PUSH2 0xF4B PUSH1 0x12 DUP4 PUSH2 0x115C JUMP JUMPDEST SWAP2 POP PUSH2 0xF56 DUP3 PUSH2 0x1389 JUMP JUMPDEST PUSH1 0x20 DUP3 ADD SWAP1 POP SWAP2 SWAP1 POP JUMP JUMPDEST PUSH1 0x0 PUSH2 0xF6E PUSH1 0x33 DUP4 PUSH2 0x115C JUMP JUMPDEST SWAP2 POP PUSH2 0xF79 DUP3 PUSH2 0x13B2 JUMP JUMPDEST PUSH1 0x40 DUP3 ADD SWAP1 POP SWAP2 SWAP1 POP JUMP JUMPDEST PUSH1 0x0 PUSH2 0xF91 PUSH1 0x22 DUP4 PUSH2 0x115C JUMP JUMPDEST SWAP2 POP PUSH2 0xF9C DUP3 PUSH2 0x1401 JUMP JUMPDEST PUSH1 0x40 DUP3 ADD SWAP1 POP SWAP2 SWAP1 POP JUMP JUMPDEST PUSH2 0xFB0 DUP2 PUSH2 0x123C JUMP JUMPDEST DUP3 MSTORE POP POP JUMP JUMPDEST PUSH2 0xFBF DUP2 PUSH2 0x1246 JUMP JUMPDEST DUP3 MSTORE POP POP JUMP JUMPDEST PUSH1 0x0 PUSH1 0x20 DUP3 ADD SWAP1 POP PUSH2 0xFDA PUSH1 0x0 DUP4 ADD DUP5 PUSH2 0xEDA JUMP JUMPDEST SWAP3 SWAP2 POP POP JUMP JUMPDEST PUSH1 0x0 PUSH1 0x60 DUP3 ADD SWAP1 POP PUSH2 0xFF5 PUSH1 0x0 DUP4 ADD DUP7 PUSH2 0xEDA JUMP JUMPDEST PUSH2 0x1002 PUSH1 0x20 DUP4 ADD DUP6 PUSH2 0xEDA JUMP JUMPDEST PUSH2 0x100F PUSH1 0x40 DUP4 ADD DUP5 PUSH2 0xFA7 JUMP JUMPDEST SWAP5 SWAP4 POP POP POP POP JUMP JUMPDEST PUSH1 0x0 PUSH1 0xE0 DUP3 ADD SWAP1 POP PUSH2 0x102C PUSH1 0x0 DUP4 ADD DUP11 PUSH2 0xEDA JUMP JUMPDEST PUSH2 0x1039 PUSH1 0x20 DUP4 ADD DUP10 PUSH2 0xFA7 JUMP JUMPDEST PUSH2 0x1046 PUSH1 0x40 DUP4 ADD DUP9 PUSH2 0xFB6 JUMP JUMPDEST PUSH2 0x1053 PUSH1 0x60 DUP4 ADD DUP8 PUSH2 0xFA7 JUMP JUMPDEST PUSH2 0x1060 PUSH1 0x80 DUP4 ADD DUP7 PUSH2 0xFA7 JUMP JUMPDEST PUSH2 0x106D PUSH1 0xA0 DUP4 ADD DUP6 PUSH2 0xFA7 JUMP JUMPDEST PUSH2 0x107A PUSH1 0xC0 DUP4 ADD DUP5 PUSH2 0xEDA JUMP JUMPDEST SWAP9 SWAP8 POP POP POP POP POP POP POP POP JUMP JUMPDEST PUSH1 0x0 PUSH1 0x20 DUP3 ADD SWAP1 POP PUSH2 0x109B PUSH1 0x0 DUP4 ADD DUP5 PUSH2 0xEE9 JUMP JUMPDEST SWAP3 SWAP2 POP POP JUMP JUMPDEST PUSH1 0x0 PUSH1 0x20 DUP3 ADD SWAP1 POP DUP2 DUP2 SUB PUSH1 0x0 DUP4 ADD MSTORE PUSH2 0x10BA DUP2 PUSH2 0xEF8 JUMP JUMPDEST SWAP1 POP SWAP2 SWAP1 POP JUMP JUMPDEST PUSH1 0x0 PUSH1 0x20 DUP3 ADD SWAP1 POP DUP2 DUP2 SUB PUSH1 0x0 DUP4 ADD MSTORE PUSH2 0x10DA DUP2 PUSH2 0xF1B JUMP JUMPDEST SWAP1 POP SWAP2 SWAP1 POP JUMP JUMPDEST PUSH1 0x0 PUSH1 0x20 DUP3 ADD SWAP1 POP DUP2 DUP2 SUB PUSH1 0x0 DUP4 ADD MSTORE PUSH2 0x10FA DUP2 PUSH2 0xF3E JUMP JUMPDEST SWAP1 POP SWAP2 SWAP1 POP JUMP JUMPDEST PUSH1 0x0 PUSH1 0x20 DUP3 ADD SWAP1 POP DUP2 DUP2 SUB PUSH1 0x0 DUP4 ADD MSTORE PUSH2 0x111A DUP2 PUSH2 0xF61 JUMP JUMPDEST SWAP1 POP SWAP2 SWAP1 POP JUMP JUMPDEST PUSH1 0x0 PUSH1 0x20 DUP3 ADD SWAP1 POP DUP2 DUP2 SUB PUSH1 0x0 DUP4 ADD MSTORE PUSH2 0x113A DUP2 PUSH2 0xF84 JUMP JUMPDEST SWAP1 POP SWAP2 SWAP1 POP JUMP JUMPDEST PUSH1 0x0 PUSH1 0x20 DUP3 ADD SWAP1 POP PUSH2 0x1156 PUSH1 0x0 DUP4 ADD DUP5 PUSH2 0xFA7 JUMP JUMPDEST SWAP3 SWAP2 POP POP JUMP JUMPDEST PUSH1 0x0 DUP3 DUP3 MSTORE PUSH1 0x20 DUP3 ADD SWAP1 POP SWAP3 SWAP2 POP POP JUMP JUMPDEST PUSH1 0x0 PUSH2 0x1178 DUP3 PUSH2 0x123C JUMP JUMPDEST SWAP2 POP PUSH2 0x1183 DUP4 PUSH2 0x123C JUMP JUMPDEST SWAP3 POP DUP3 PUSH32 0xFFFFFFFFFFFFFFFFFFFFFFFFFFFFFFFFFFFFFFFFFFFFFFFFFFFFFFFFFFFFFFFF SUB DUP3 GT ISZERO PUSH2 0x11B8 JUMPI PUSH2 0x11B7 PUSH2 0x12AE JUMP JUMPDEST JUMPDEST DUP3 DUP3 ADD SWAP1 POP SWAP3 SWAP2 POP POP JUMP JUMPDEST PUSH1 0x0 PUSH2 0x11CE DUP3 PUSH2 0x123C JUMP JUMPDEST SWAP2 POP PUSH2 0x11D9 DUP4 PUSH2 0x123C JUMP JUMPDEST SWAP3 POP DUP3 DUP3 LT ISZERO PUSH2 0x11EC JUMPI PUSH2 0x11EB PUSH2 0x12AE JUMP JUMPDEST JUMPDEST DUP3 DUP3 SUB SWAP1 POP SWAP3 SWAP2 POP POP JUMP JUMPDEST PUSH1 0x0 PUSH2 0x1202 DUP3 PUSH2 0x121C JUMP JUMPDEST SWAP1 POP SWAP2 SWAP1 POP JUMP JUMPDEST PUSH1 0x0 DUP2 SWAP1 POP PUSH2 0x1217 DUP3 PUSH2 0x1450 JUMP JUMPDEST SWAP2 SWAP1 POP JUMP JUMPDEST PUSH1 0x0 PUSH20 0xFFFFFFFFFFFFFFFFFFFFFFFFFFFFFFFFFFFFFFFF DUP3 AND SWAP1 POP SWAP2 SWAP1 POP JUMP JUMPDEST PUSH1 0x0 DUP2 SWAP1 POP SWAP2 SWAP1 POP JUMP JUMPDEST PUSH1 0x0 PUSH1 0xFF DUP3 AND SWAP1 POP SWAP2 SWAP1 POP JUMP JUMPDEST PUSH1 0x0 PUSH2 0x125E DUP3 PUSH2 0x1209 JUMP JUMPDEST SWAP1 POP SWAP2 SWAP1 POP JUMP JUMPDEST PUSH1 0x0 PUSH2 0x1270 DUP3 PUSH2 0x123C JUMP JUMPDEST SWAP2 POP PUSH32 0xFFFFFFFFFFFFFFFFFFFFFFFFFFFFFFFFFFFFFFFFFFFFFFFFFFFFFFFFFFFFFFFF DUP3 EQ ISZERO PUSH2 0x12A3 JUMPI PUSH2 0x12A2 PUSH2 0x12AE JUMP JUMPDEST JUMPDEST PUSH1 0x1 DUP3 ADD SWAP1 POP SWAP2 SWAP1 POP JUMP JUMPDEST PUSH32 0x4E487B7100000000000000000000000000000000000000000000000000000000 PUSH1 0x0 MSTORE PUSH1 0x11 PUSH1 0x4 MSTORE PUSH1 0x24 PUSH1 0x0 REVERT JUMPDEST PUSH32 0x4E487B7100000000000000000000000000000000000000000000000000000000 PUSH1 0x0 MSTORE PUSH1 0x21 PUSH1 0x4 MSTORE PUSH1 0x24 PUSH1 0x0 REVERT JUMPDEST PUSH1 0x0 DUP1 REVERT JUMPDEST PUSH32 0x4E6F7420616E2061756374696F6E206C697374696E6700000000000000000000 PUSH1 0x0 DUP3 ADD MSTORE POP JUMP JUMPDEST PUSH32 0x4F776E65722063616E6E6F742062696420616E64206F6E6C79206F776E657220 PUSH1 0x0 DUP3 ADD MSTORE PUSH32 0x68617320616363657373206F6620746869730000000000000000000000000000 PUSH1 0x20 DUP3 ADD MSTORE POP JUMP JUMPDEST PUSH32 0x61756374696F6E2074696D6520656E6465640000000000000000000000000000 PUSH1 0x0 DUP3 ADD MSTORE POP JUMP JUMPDEST PUSH32 0x4F776E65722063616E6E6F742062696420616E64206F6E6C79206F776E657220 PUSH1 0x0 DUP3 ADD MSTORE PUSH32 0x63616E20657865637574652061756374696F6E00000000000000000000000000 PUSH1 0x20 DUP3 ADD MSTORE POP JUMP JUMPDEST PUSH32 0x62696420616D6F756E74206C657373207468616E206C697374696E6720707269 PUSH1 0x0 DUP3 ADD MSTORE PUSH32 0x6365000000000000000000000000000000000000000000000000000000000000 PUSH1 0x20 DUP3 ADD MSTORE POP JUMP JUMPDEST PUSH1 0x4 DUP2 LT PUSH2 0x1461 JUMPI PUSH2 0x1460 PUSH2 0x12DD JUMP JUMPDEST JUMPDEST POP JUMP JUMPDEST PUSH2 0x146D DUP2 PUSH2 0x11F7 JUMP JUMPDEST DUP2 EQ PUSH2 0x1478 JUMPI PUSH1 0x0 DUP1 REVERT JUMPDEST POP JUMP JUMPDEST PUSH2 0x1484 DUP2 PUSH2 0x123C JUMP JUMPDEST DUP2 EQ PUSH2 0x148F JUMPI PUSH1 0x0 DUP1 REVERT JUMPDEST POP JUMP JUMPDEST PUSH2 0x149B DUP2 PUSH2 0x1246 JUMP JUMPDEST DUP2 EQ PUSH2 0x14A6 JUMPI PUSH1 0x0 DUP1 REVERT JUMPDEST POP JUMP INVALID LOG2 PUSH5 0x6970667358 0x22 SLT KECCAK256 GASPRICE SWAP16 0xA6 SWAP14 0xD0 PUSH10 0x88929A902D896AE70B1A PUSH25 0x21A4AC9DECDD7F8D4AAB27AF182EC364736F6C634300080700 CALLER "
				},
				"gasEstimates": {
					"creation": {
						"codeDepositCost": "1068600",
						"executionCost": "98941",
						"totalCost": "1167541"
					},
					"external": {
						"AUCTION_DURATION()": "2474",
						"MIN_BID()": "2518",
						"MIN_PRICE()": "2496",
						"auctionState()": "2624",
						"auctioneer()": "2604",
						"bidPrice()": "2475",
						"bidder()": "2580",
						"buyAsset(uint256)": "infinite",
						"cancelAuction()": "26624",
						"endAuction()": "2539",
						"executeAuction(uint256)": "infinite",
						"finalizeAuction()": "4543",
						"listForSale(address,uint256,uint8,uint256,uint256,uint256)": "infinite",
						"listingCounter()": "2474",
						"listings(uint256)": "infinite",
						"placeBid(uint256,uint256)": "infinite",
						"startAuction()": "2452"
					}
				},
				"methodIdentifiers": {
					"AUCTION_DURATION()": "a271e525",
					"MIN_BID()": "ce69cd20",
					"MIN_PRICE()": "ad9f20a6",
					"auctionState()": "7fb45099",
					"auctioneer()": "5ec2c7bf",
					"bidPrice()": "19afe473",
					"bidder()": "f496d882",
					"buyAsset(uint256)": "110d35b8",
					"cancelAuction()": "8fa8b790",
					"endAuction()": "fe67a54b",
					"executeAuction(uint256)": "7fd855ee",
					"finalizeAuction()": "f77282ab",
					"listForSale(address,uint256,uint8,uint256,uint256,uint256)": "eb2aa7c6",
					"listingCounter()": "6c2c9c7d",
					"listings(uint256)": "de74e57b",
					"placeBid(uint256,uint256)": "57c90de5",
					"startAuction()": "6b64c769"
				}
			},
			"storageLayout": {
				"storage": [
					{
						"astId": 142,
						"contract": "PixelParkSale.sol:PixelParkSale",
						"label": "auctionState",
						"offset": 0,
						"slot": "0",
						"type": "t_enum(Auction_State)137"
					},
					{
						"astId": 160,
						"contract": "PixelParkSale.sol:PixelParkSale",
						"label": "PixelParkFee",
						"offset": 0,
						"slot": "1",
						"type": "t_uint256"
					},
					{
						"astId": 163,
						"contract": "PixelParkSale.sol:PixelParkSale",
						"label": "FEE_SCALE",
						"offset": 0,
						"slot": "2",
						"type": "t_uint256"
					},
					{
						"astId": 168,
						"contract": "PixelParkSale.sol:PixelParkSale",
						"label": "listings",
						"offset": 0,
						"slot": "3",
						"type": "t_mapping(t_uint256,t_struct(Asset)157_storage)"
					},
					{
						"astId": 171,
						"contract": "PixelParkSale.sol:PixelParkSale",
						"label": "listingCounter",
						"offset": 0,
						"slot": "4",
						"type": "t_uint256"
					},
					{
						"astId": 174,
						"contract": "PixelParkSale.sol:PixelParkSale",
						"label": "auctioneer",
						"offset": 0,
						"slot": "5",
						"type": "t_address"
					},
					{
						"astId": 177,
						"contract": "PixelParkSale.sol:PixelParkSale",
						"label": "startAuction",
						"offset": 0,
						"slot": "6",
						"type": "t_uint256"
					},
					{
						"astId": 180,
						"contract": "PixelParkSale.sol:PixelParkSale",
						"label": "endAuction",
						"offset": 0,
						"slot": "7",
						"type": "t_uint256"
					},
					{
						"astId": 183,
						"contract": "PixelParkSale.sol:PixelParkSale",
						"label": "bidPrice",
						"offset": 0,
						"slot": "8",
						"type": "t_uint256"
					},
					{
						"astId": 186,
						"contract": "PixelParkSale.sol:PixelParkSale",
						"label": "bidder",
						"offset": 0,
						"slot": "9",
						"type": "t_address"
					},
					{
						"astId": 190,
						"contract": "PixelParkSale.sol:PixelParkSale",
						"label": "isBidded",
						"offset": 20,
						"slot": "9",
						"type": "t_bool"
					},
					{
						"astId": 193,
						"contract": "PixelParkSale.sol:PixelParkSale",
						"label": "AUCTION_DURATION",
						"offset": 0,
						"slot": "10",
						"type": "t_uint256"
					},
					{
						"astId": 196,
						"contract": "PixelParkSale.sol:PixelParkSale",
						"label": "MIN_PRICE",
						"offset": 0,
						"slot": "11",
						"type": "t_uint256"
					},
					{
						"astId": 199,
						"contract": "PixelParkSale.sol:PixelParkSale",
						"label": "MIN_BID",
						"offset": 0,
						"slot": "12",
						"type": "t_uint256"
					}
				],
				"types": {
					"t_address": {
						"encoding": "inplace",
						"label": "address",
						"numberOfBytes": "20"
					},
					"t_bool": {
						"encoding": "inplace",
						"label": "bool",
						"numberOfBytes": "1"
					},
					"t_enum(Auction_State)137": {
						"encoding": "inplace",
						"label": "enum PixelParkSale.Auction_State",
						"numberOfBytes": "1"
					},
					"t_mapping(t_uint256,t_struct(Asset)157_storage)": {
						"encoding": "mapping",
						"key": "t_uint256",
						"label": "mapping(uint256 => struct PixelParkSale.Asset)",
						"numberOfBytes": "32",
						"value": "t_struct(Asset)157_storage"
					},
					"t_struct(Asset)157_storage": {
						"encoding": "inplace",
						"label": "struct PixelParkSale.Asset",
						"members": [
							{
								"astId": 144,
								"contract": "PixelParkSale.sol:PixelParkSale",
								"label": "tokenAddress",
								"offset": 0,
								"slot": "0",
								"type": "t_address"
							},
							{
								"astId": 146,
								"contract": "PixelParkSale.sol:PixelParkSale",
								"label": "tokenId",
								"offset": 0,
								"slot": "1",
								"type": "t_uint256"
							},
							{
								"astId": 148,
								"contract": "PixelParkSale.sol:PixelParkSale",
								"label": "saleType",
								"offset": 0,
								"slot": "2",
								"type": "t_uint8"
							},
							{
								"astId": 150,
								"contract": "PixelParkSale.sol:PixelParkSale",
								"label": "price",
								"offset": 0,
								"slot": "3",
								"type": "t_uint256"
							},
							{
								"astId": 152,
								"contract": "PixelParkSale.sol:PixelParkSale",
								"label": "fee",
								"offset": 0,
								"slot": "4",
								"type": "t_uint256"
							},
							{
								"astId": 154,
								"contract": "PixelParkSale.sol:PixelParkSale",
								"label": "expirationTime",
								"offset": 0,
								"slot": "5",
								"type": "t_uint256"
							},
							{
								"astId": 156,
								"contract": "PixelParkSale.sol:PixelParkSale",
								"label": "owner",
								"offset": 0,
								"slot": "6",
								"type": "t_address"
							}
						],
						"numberOfBytes": "224"
					},
					"t_uint256": {
						"encoding": "inplace",
						"label": "uint256",
						"numberOfBytes": "32"
					},
					"t_uint8": {
						"encoding": "inplace",
						"label": "uint8",
						"numberOfBytes": "1"
					}
				}
			},
			"userdoc": {
				"kind": "user",
				"methods": {
					"AUCTION_DURATION()": {
						"notice": "Time Auction will last"
					},
					"MIN_BID()": {
						"notice": "Min delta between 2 bids"
					},
					"MIN_PRICE()": {
						"notice": "Min price for NFT"
					},
					"auctioneer()": {
						"notice": "Timestamp when auction was started"
					},
					"bidPrice()": {
						"notice": "Price in ether of the current winning bid"
					},
					"bidder()": {
						"notice": "Address of the current winner bidder"
					},
					"endAuction()": {
						"notice": "Timestamp when auction was finished (24h after starting)"
					},
					"executeAuction(uint256)": {
						"notice": "------------------------------------------------------ Auctionerr action ------------------------------------------------------"
					},
					"placeBid(uint256,uint256)": {
						"notice": "------------------------------------------------------ Users actions ------------------------------------------------------"
					},
					"startAuction()": {
						"notice": "Timestamp when auction was started"
					}
				},
				"version": 1
			}
		}
	}
}